:020000040800F2
:10000000F045002495030008B37800087343000806
:10001000B1780008B1190008D58800080000000078
:10002000000000000000000000000000E580000863
:100030006D1B000800000000B5780008E78000088C
:10004000B3030008B3030008B3030008B3030008B8
:10005000B3030008B3030008B3030008B3030008A8
:10006000B3030008B3030008B3030008B303000898
:10007000B3030008B3030008B3030008B303000888
:10008000B3030008B3030008B3030008B303000878
:10009000B3030008B3030008B3030008B303000868
:1000A000B3030008B3030008B3030008B303000858
:1000B000B3030008B3030008B3030008B303000848
:1000C000B3030008B3030008B3030008B303000838
:1000D000B3030008C9880008B3030008B30300088D
:1000E000B3030008B303000800000000B3030008D6
:1000F000B3030008B3030008B3030008B303000808
:10010000B3030008B3030008B3030008B3030008F7
:10011000B3030008B3030008B3030008B3030008E7
:10012000B3030008B3030008B3030008B3030008D7
:10013000B3030008B3030008B3030008B3030008C7
:1001400000000000000000000000000000000000AF
:10015000B3030008B3030008B3030008B3030008A7
:10016000B3030008B3030008B3030008B303000897
:10017000B3030008B3030008B30300080000000045
:10018000B3030008B3030008B3030008B303000877
:10019000B3030008B3030008B3030008B303000867
:1001A000B3030008B3030008B3030008B303000857
:1001B000B3030008B3030008B3030008B303000847
:1001C000B3030008B3030008B3030008B303000837
:1001D000B3030008B3030008B3030008B303000827
:1001E000B3030008B3030008B3030008B303000817
:1001F000B3030008B3030008B3030008B303000807
:10020000B3030008B3030008B3030008B3030008F6
:10021000B3030008B3030008B3030008B3030008E6
:10022000B3030008B3030008B30300080000000094
:10023000B3030008B303000800000000B303000884
:10024000B3030008B3030008B3030008B3030008B6
:10025000B3030008B3030008B3030008B3030008A6
:10026000B3030008B3030008B3030008B303000896
:10027000B3030008B3030008B30300080000000044
:10028000B3030008B3030008B30300080000000034
:1002900000000000B303000800F002F800F06AF864
:1002A0000AA090E8000C82448344AAF10107DA45D1
:1002B00001D100F05FF8AFF2090EBAE80F0013F0B9
:1002C000010F18BFFB1A43F001031847848B00008D
:1002D000A48B0000103A24BF78C878C1FAD852071E
:1002E00024BF30C830C144BF04680C6070470000B0
:1002F0000023002400250026103A28BF78C1FBD82F
:10030000520728BF30C148BF0B6070476E2900F00C
:100310009781702900F06282692900F05581642973
:1003200000F05281752900F04F816F2900F0FA81A9
:10033000782900F046820368DB0928BF41F080017C
:10034000632900F0FE86732900F00387E32900F09B
:100350000E87002070471FB508F020FB01F008F859
:1003600004000020002108F003FB401C60601FBD5A
:1003700010B510BD01F0C4F91146FFF7ECFF08F00D
:10038000C2FA01F0E2F903B4FFF7F2FF03BC01F097
:10039000E5F900000A4880470A4880470A480047B4
:1003A000FEE7FEE7FEE7FEE7FEE7FEE7FEE7FEE725
:1003B000FEE7FEE705480649064A074B704700007E
:1003C000751B00087D81000899020008F03F002499
:1003D000F0450024F0410024F041002453EA020CCF
:1003E00000F069802DE9F04B4FF00006002B1FBF95
:1003F000B3FA83F503FA05F424FA05F65E4012BF5A
:100400001643B2FA82F502FA05F4C5F120051EBFC3
:1004100022FA05FC44EA0C04203556EA044C4FEA63
:10042000144418BF641C4FF000084FF000099042BC
:1004300071EB030C39D3002919BFB1FA81F701FA26
:1004400007F6B0FA80F700FA07F6C7F120071EBFDB
:1004500020FA07FC46EA0C062037B6FBF4FCA7EBB3
:100460000507103F07F01F0BCBF120060CFA0BFB22
:100470002CFA06F644BFB3460026202FA4BF5E46E2
:100480004FF0000B5BEA060C08BF4FF0010B19EBB5
:100490000B09ABFB027C48EB0608C01B06FB02CC39
:1004A0000BFB03CC71EB0C01C1E70B460246414646
:1004B0004846BDE8F08B13B54FF000004FF0000147
:1004C000AFF30080BDE81C40704700000FB47CB55E
:1004D0000C0009AA009001D02044401E084B7B4428
:1004E00069460190089800F002FE05461CB1002004
:1004F000694600F00FFE28467CBC5DF814FB000046
:100500003D0C000070B5044685690068C10601D540
:10051000302600E02026C00707D070BDD4E90121B5
:1005200030469047206A401C20626D1EF6D570BD93
:1005300070B5044685690078C00707D170BDD4E95D
:10054000012120209047206A401C20626D1EF6D5B4
:1005500070BD09684A0501D540B27047C905FCD590
:1005600000B2704709684A0501D5C0B27047C90595
:10057000FCD580B2704770B50C460546012A05D0FF
:100580002878800600D5EA69002302E0012305E00F
:100590005B1C934202D2E05C0028F9D1A869E618FE
:1005A000C01AA861286A184428622846FFF7AAFFE3
:1005B00004E0D5E9012114F8010B9047B442F8D3C7
:1005C0002846FFF7B5FF70BD2DE9F041064600242F
:1005D00010687529314616A510D0FFF7BAFF00281C
:1005E00002DA404213A507E031688A0701D512A557
:1005F00002E0490704D511A5012401E0FFF7B2FF8D
:1006000000210A2206F1240709E0B0FBF2FCB0FB4E
:10061000F2F302FB1C00303078541846491C0028C5
:10062000F3D123462A463046BDE8F04100F000BD34
:10063000000000002D0000002B0000002000000042
:1006400011680268006A530501D508700AE0D305F5
:1006500001D5088006E0130603D5C217C1E90002E0
:1006600000E00860012070472DE9FF5F15468A46CB
:100670000446DFF8AC80F8440027D8E900103E4675
:10068000CDE9001010E03AF816106A4602A800F012
:100690000EFE411C07D02178890603D5E26939187E
:1006A00091420DD80744761C2078800602D5E06977
:1006B000B84205DDAE42E6DB3AF816000028E2D18A
:1006C000A069C01BA0612046FFF71CFFD8E90010FD
:1006D000CDE90010002017E03AF818106A4602A889
:1006E00000F0E5FDB0F1FF3F81460BD000250DF194
:1006F000080B05E0D4E901211BF8050090476D1CAB
:100700004D45F7D308F10100B0428046E4DB206A92
:10071000384420622046FFF70BFFBDE8FF9F000032
:100720006683000070B5044621461068FFF71AFF83
:10073000002104F1240505E000F007023032C00872
:100740006A54491C0028F7D12068002307A2050736
:1007500007D5800600D421B1E069012304A2401E20
:10076000E0612046BDE8704000F062BC000000007F
:1007700030000000F0B40D460188090502D51B4C7D
:100780007C4402E0194C7C440E34002100F1240327
:1007900005E002F00F061209A65D5E54491C002A0E
:1007A000F7D102780023120704D5702D06D009B1C5
:1007B000022311342246F0BC00F03ABC012310346D
:1007C000F8E770B504460D4621461068FFF7CAFEEB
:1007D000024629462046BDE87040CBE70368126810
:1007E00043F0200303600823C361C3E76482000071
:1007F0002DE9F05F894604464FF0000ADFF874B136
:10080000FB44C0F820A02046E1688847002874D047
:10081000252806D0D4E901219047206A401C206297
:10082000F1E700265F462046E16888472028054614
:1008300007DB312D05D2781910F8200C08B10643DA
:10084000F1E7B00701D526F00406C4F81CA0002784
:10085000C4F818A02A2D09D0284608F04DF838B35E
:1008600004EB8708303DC8F8185019E059F8041B0C
:10087000204604EB87029161E1688847012F054615
:1008800018D1E069002820DA26F020061DE0D8F80B
:10089000180000EB800005EB40003038C8F8180065
:1008A0002046E1688847054608F026F80028EED182
:1008B000012F0AD02E2D08D12046E16888477F1CE1
:1008C0000546022F46F02006C4DBA069002803DAA3
:1008D000404246F00106A061F00701D026F0100664
:1008E0006C2D0BD0682D09D04C2D39D06A2D35D008
:1008F000742D35D07A2D33D016E038E0E1682F46DC
:1009000020468847B842054609D16C2F26D04FF4BF
:100910008060E168064320468847054604E06C2F66
:100920001AD04FF4807006430DB3A5F14100192889
:1009300002D8203546F400664A46294620462660FD
:100940004E46FFF7E3FC80B101280BD0F61D26F0E0
:10095000070000F1080956E74020E4E78020D8E7C7
:100960000020D6E706F104094DE7284652E7206A41
:10097000BDE8F09F0C8200000FB400B58DB010A947
:10098000099000910B904FF0FF300A9000200C90DE
:10099000064878440690064878446A4607900F99BE
:1009A00009A800F005FC0DB05DF814FB3B08000041
:1009B000530800002DE9FF5F1D464FF0FF3B9146B5
:1009C0004FF000085F46D5E90146A96901987F1CF0
:1009D0008847296A824688470028F6D1BAF1FF3F46
:1009E0000CD0002E24F4C06419DD600614D5BAF1D1
:1009F0002B0F09D0BAF12D0F0ED103E0584604B0E9
:100A0000BDE8F09F44F48064A96901987F1C884781
:100A1000761E8246002E02DDBAF1300F03D0B9F106
:100A2000000F26D032E0A969761E01987F1C44F49D
:100A300000748847002E824605DDBAF1780F06D093
:100A4000BAF1580F03D0B9F1000F10D01EE0B9F180
:100A5000000F02D0B9F1100F18D1A969761E0198C4
:100A60007F1C24F4007488478246102002E008208E
:100A700000E00A20814609E0A96908FB0908761E02
:100A800001987F1C44F4007488478246002E05DDDF
:100A90004946504600F077FB0028EDDAE9690198F5
:100AA0008847A00502D46FF00100A8E7E00725D130
:100AB000600613D5600502D5C8F1000000E040468D
:100AC00029680A1D2A600968220501D5087015E009
:100AD000220701D5088011E008600FE02868011D99
:100AE00029600068210502D580F8008006E0210712
:100AF00002D5A0F8008001E0C0F8008038467EE70B
:100B00002DE9F04791460F4680460446002614F82A
:100B1000015B2DB100F080FA0068405DC007F6D19E
:100B20002B2D02D02D2D18D0641E4A463946204662
:100B300000F06EFB27B13968A14201D1C7F80080EF
:100B40004FF0020471050BD54042002803DD00F090
:100B50006BFA0460A007BDE8F08746F48066E4E71E
:100B60000028F8DA00F060FA04606FF00040F2E765
:100B70002DE9F05F93460F4680460446002600F0BC
:100B800053FAD0F80090824614F8015B2DB100F0C2
:100B900043FA0068405DC007F6D12B2D02D02D2D01
:100BA0001AD0641E0021CAF800105A463946204661
:100BB00000F02EFB014627B13868A04201D1C7F8EA
:100BC0000080DAF80000022809D0CAF80090700509
:100BD00005D54842BDE8F09F46F48066E2E7084646
:100BE000F8E7401ECAB210F8011F8A4202D000295D
:100BF000F9D10020704730B505460B462A4613F858
:100C0000014B12F8010B08B1A042F8D01CB100282A
:100C100002D06D1CF1E7284630BD40EA01030246D0
:100C200030B59B0710D14FF0013400E008C208C96D
:100C30001D1B9D4315EAC41FF8D013F0FF0102F8F5
:100C4000011B0DD01B0AF8E711F8013B002B02F83D
:100C5000013B05D011F8013B002B02F8013BF3D119
:100C600030BD0022CBB210F8011B994200D1421EC8
:100C70000029F8D11046704710B5431C02E010F867
:100C8000011B71B18107FAD14FF0013202C88C1AF1
:100C90008C4314EAC211F9D0C01A0A0603D0C01E50
:100CA00010BDC01A10BD0A0401D0801E10BD09027B
:100CB000FCD0401E10BD40EA010370B59B072ED149
:100CC0004FF00136042A2AD308C810C99D1B9D4342
:100CD000121F15EAC61517D0D8B2E1B2401A50EA71
:100CE000056110D198B2A1B2401A50EA05410AD16B
:100CF00023F07F4024F07F41401A50EA052102D1C1
:100D0000180EA0EB146070BDA342DBD018BA21BA54
:100D1000884201D9012070BD4FF0FF3070BD0AB983
:100D2000002070BD10F8013B11F8014B63B1A342E4
:100D30000AD1521E08D010F8013B11F8014B1BB12B
:100D4000A34201D1521EEDD1181B70BD032A40F2FF
:100D5000308010F0030C00F0158011F8013BBCF15D
:100D6000020F624498BF11F801CB00F8013B38BF75
:100D700011F8013BA2F1040298BF00F801CB38BF83
:100D800000F8013B11F0030300F06780083AC0F05F
:100D9000088051F8043B083A51F804CBA0E8081049
:100DA000F5E7121D5CBF51F8043B40F8043BAFF37C
:100DB0000080D20724BF11F8013B11F801CB48BFD6
:100DC00011F8012B24BF00F8013B00F801CB48BF0C
:100DD00000F8012B7047431A28BF9A427FF6B6AF3E
:100DE000032A1044114440F2268010F0030F1EBF66
:100DF00011F8013D521E00F8013D10F0030F7FF481
:100E0000F6AF11F0030300F08582083AC0F00B80C2
:100E100051F8043D083A51F804CD40F8043D40F83B
:100E200004CDFFF7F3BF121D5CBF51F8043D40F83D
:100E3000043DAFF30080D20724BF11F8013D11F843
:100E400001CD48BF11F8012C24BF00F8013D00F886
:100E500001CD48BF00F8012C704710B5203AC0F012
:100E60000B80B1E81850203AA0E81850B1E81850AB
:100E7000A0E81850BFF4F5AF5FEA027C24BFB1E8E8
:100E80001850A0E8185044BF18C918C0BDE8104059
:100E90005FEA827C24BF51F8043B40F8043B08BF62
:100EA0007047D20728BF31F8023B48BF11F8012B29
:100EB00028BF20F8023B48BF00F8012B70474FF0D5
:100EC00000020429C0F0128010F0030C00F01B8017
:100ED000CCF1040CBCF1020F18BF00F8012BA8BF25
:100EE00020F8022BA1EB0C0100F00DB85FEAC17CE9
:100EF00024BF00F8012B00F8012B48BF00F8012B9C
:100F000070474FF0000200B51346944696462039CC
:100F100022BFA0E80C50A0E80C50B1F12001BFF4B2
:100F2000F7AF090728BFA0E80C5048BF0CC05DF818
:100F300004EB890028BF40F8042B08BF704748BF66
:100F400020F8022B11F0804F18BF00F8012B7047DA
:100F500010B5044610F0030F08BF11F0030F40F066
:100F600015804FF0013E121FC0F20E8051F8043B75
:100F7000A3EB0E0C2CEA030C1CEACE1C08BF40F8B5
:100F8000043BF0D0A1F1040102F10402521E08DB7F
:100F900011F8013B002B00F8013BF7D11146FFF798
:100FA0008EFF204610BD00004FF0013C50F8042B8E
:100FB00051F8043B9A4215D1A2EB0C03934313EA78
:100FC000CC130BD150F8042B51F8043B9A4209D1B1
:100FD000A2EB0C03934313EACC13E7D04FF00000CD
:100FE000704700BFD01A01BAB1FA81F101F01801BF
:100FF00022FA01F0CB40C1F12001DBB2C0B2C01A2D
:101000002CFA01F3D11A914311EAC311E6D17047CA
:10101000704770477047000010B500F0A9F9001D37
:1010200010BD00BF4D79000000487047903F00247C
:101030002DE9F0470D4699469246044600F12408F2
:101040000168880604D5E06921F01001216000E004
:101050000120A84201DD471B00E00027A1697A19A1
:1010600002EB0900081AA0612078C00602D42046CD
:10107000FFF748FA002608E0D4E901211AF8060033
:101080009047206A401C761C20624E45F4DB207895
:10109000C0060AD52046FFF735FA06E0D4E901215B
:1010A00030209047206A401C2062381EA7F10107BB
:1010B000F4DC07E0D4E9012118F805009047206A24
:1010C000401C2062281EA5F10105F3DC2046FFF735
:1010D0002FFA2078000602D50220BDE8F087012013
:1010E000FBE7000001694A1C02610878704700B5FF
:1010F0008FB0CDE901310021059105497944CDE951
:10110000031011466846FFF773FB0FB000BD0000E7
:10111000E5FFFFFF0A6802F8010B0A607047D1E99A
:1011200000239A4202D2531C0B601070704710B516
:10113000436913B1AFF3008001E0FFF71CFA01200F
:1011400010BD127800F124010A7000224A700122B9
:10115000EDE711684FF0FF32E9E710B5436913B1CD
:10116000AFF3008001E0FFF77FFA012010BD128885
:1011700000F1240182840022C2840122EDE711687B
:101180004FF0FF32E9E73A2800D2303820F0200251
:10119000412A01D3A2F13700884201D34FF0FF303A
:1011A00070470000026811441378016018467047C8
:1011B000D1600549794451610449794411620021A3
:1011C0001161114600F0E2B8EDFFFFFFBB01000026
:1011D000426842B1016811F8013B23B1521EC0E9D7
:1011E0000012184670470121C160881E704742688E
:1011F0005AB1C368016843B983688B4205D0491E60
:10120000521CC0E90012002070474FF0FF307047B9
:101210002DE9F05F824615468B4600270AF101044E
:10122000B9460078302801D09DB113E014F8010BC5
:101230000127782803D0582801D045B10AE00DB124
:10124000102D07D1002714F8010B102502E0082506
:1012500000E00A250026B0460EE005FB080005FB6D
:1012600006F101271FFA80F801EB1046B6F5803F22
:1012700000D3B94614F8010B2946FFF784FF002874
:10128000EBDABBF1000F05D00FB1641E00E054464D
:10129000CBF80040B9F1000F06D0FFF7C5FE0221E0
:1012A0000160C81EBDE8F09F48EA0640FAE770B545
:1012B00016460C460546FFF7AFFE036893F801019A
:1012C000012806D0FF2C0FD8185D68B101202C70C2
:1012D00070BDD3F807013246214603F207130344D9
:1012E0002846BDE8704018474FF0FF3070BD431AE4
:1012F00028BF9A427FF6B1AD104410F0030F11449D
:101300001EBF11F8013D521E00F8013D10F0030F01
:101310007FF4F6AF103AC0F00A8010B531E91850EA
:10132000103A20E91850BFF4F9AFBDE81040530758
:1013300024BF31E9081020E9081044BF51F8043DEA
:1013400040F8043D12F0030F08BF7047D20728BFD2
:1013500031F8023D48BF11F8012C28BF20F8023DAA
:1013600048BF00F8012C704700487047903F0024A8
:1013700000487047B03F002410B50446FFF74CFE0C
:101380000068005D00F0010010BD00002DE9F34F82
:101390004FF0000A0C4656468DB001200C9001F12A
:1013A0000C000B9062690B9801219047051E2DD00F
:1013B000252D2CD0216A8847C0B162690B98012184
:1013C0009047216A88470028F7D16269411E0B982F
:1013D000904700E0761CA1690D988847216A8847EC
:1013E0000028F7D1E1690D988847DBE7A1690D98DE
:1013F0008847A842074601D1761CD3E7E1690D98DA
:1014000088477F1C02D1BAF1000F6FD06CE162698E
:101410000B9800273D46394690472A2804D1626937
:101420000B98012190470125DFF8D08262690B9863
:1014300001219047A0F130010A290AD24745E5DC95
:1014400007EB870100EB4107303FDFD445F0100583
:10145000ECE7E90601D46FF000476C280AD04C286D
:1014600014D0682815D06A280DD074281CD07A288A
:101470001AD01DE062690B98012190476C2802D0B8
:1014800045F0040514E045F002050DE045F02005A7
:101490000AE062690B9801219047682802D045F064
:1014A000080505E045F4006562690B980121904745
:1014B000C4E9015765283DD019DC58287AD00CDCE6
:1014C000452837D004DC252826D041289ED131E09C
:1014D00046282FD0472899D12CE05B2877D0612867
:1014E00028D063287CD0642823D15AE0F7E06F2805
:1014F00048D008DC66281DD067281BD0692821D079
:101500006E2816D127E0702845D0732868D075283A
:1015100047D078280DD14DE0A1690D98884725283E
:1015200005463FF469AFE1690D9888476D1C3FF4AB
:101530006AAFD9E00D9923466A466FF00100AFF318
:101540000080C6E045F0400023464FF00002606096
:10155000A80736D43EE0E8077FF447AF2068011DB6
:1015600021600068290501D506701BE7290701D510
:10157000068017E7A90703D5F117C0E9006111E755
:1015800006600FE745F0400023464FF00802606018
:10159000A80716D41EE040F60E0125EA010060609F
:1015A00016E045F0400023464FF00A026060A807AD
:1015B00007D40FE045F040006060A80708D5234637
:1015C00010220D996FF00100AFF3008081E007E079
:1015D000102223460D996FF00100FFF7EBF978E038
:1015E0004FF0000963284F46C8464B46CB4602D011
:1015F0005B2807D039E02079C00601D40120A06023
:10160000012732E06269D4F80CB00B9801219047B1
:101610005E2807D14FF0010949466269D4F80CB041
:101620000B989047216939B900210A4603AB43F86A
:101630002120491C0829FADBD8B3216949B308F1F4
:10164000010862690B98012190475D28F4D1B9F136
:10165000000F09D0002003A951F82020D24341F8FF
:101660002020401C0828F7DB03AB206900282079E4
:101670004FEA40701ED05B462246CDF80080CDE98F
:1016800001970D9900286FF0010020DAAFF3008078
:101690001FE0C11703AA00EBD1614B1121F01F011C
:1016A00002EB8302411A1368012088400343136050
:1016B000C7E719E00D99224600286FF00100009756
:1016C00002DAAFF3008004E0AFF3008001E0AFF393
:1016D000008000280ADA401C06D10C9820B14FF097
:1016E000FF300FB0BDE8F08F5046FAE7E90701D1AF
:1016F0000AF1010A064400200C9053E6CCCCCC0C35
:101700007546FFF731FEAE4605006946534620F0A8
:101710000700854618B020B5FEF74CFEBDE8204016
:101720004FF000064FF000074FF000084FF0000B9D
:1017300021F00701AC46ACE8C009ACE8C009ACE850
:10174000C009ACE8C0098D46704710B50446AFF338
:1017500000802046BDE81040FEF715BE0149182064
:10176000ABBEFEE7260002007047000010B506F091
:1017700093FC03F00DF803F0B7FB40F6B83000F02F
:10178000C5FC012004F070FD00F052F80149002072
:10179000086010BD1400002410B500F00BF904F02F
:1017A0009DFA03F027FA194C072803D300F0E6FD51
:1017B000206010BD206838B100F0E0FD226841F2E1
:1017C0008831801A8842F4D300F0D8FD206003F0FD
:1017D00011FA28B903F005FD010001D00CA011E0B9
:1017E00003F008FA062805D203F098F8010001D0AA
:1017F0000AA007E003F0FEF90728DAD204F0D8F9CE
:10180000014608A0BDE8104000F0A6B8140000246E
:10181000507265706172654E65740000436F6E6E44
:1018200065637400537562736372696265000000DA
:1018300010B5ADF5607D044620A000F0A7F8002C9F
:1018400037D0022C37D025A3302126A2D3A8FEF70B
:101850003DFED3A800F09AF8274800F097F827A09B
:1018600000F094F8684603F0BBF930212CA2D3A80D
:101870000DF5A173FEF72AFED3A800F087F83021FA
:101880002AA2D3A80DF5E173FEF720FED3A800F03D
:101890007DF8302129A2D3A80DF24223FEF716FECF
:1018A000D3A800F073F8284800F070F80DF5607DBB
:1018B00010BD26A3C8E726A3C6E700000D0A4C36D4
:1018C000313020646961676E6F73746963206D6F76
:1018D00064652072656164790D0A00004552524FBB
:1018E000520000004D6F64656D2073796E633A207D
:1018F00025730D0A00000000688A00084D515454F9
:10190000206175746F207265636F6E6E65637420FD
:10191000697320656E61626C65640D0A00000000E9
:10192000434D443A2025730D0A000000535441549E
:1019300055533A2025730D0A0000000041434B3AED
:101940002025730D0A000000248A00084F4B000078
:1019500054494D454F55540010B596B004460846BD
:1019600003F0A4F95021234604A2009001A8FEF739
:10197000ADFD01A800F00AF816B010BD5B41505053
:101980005D2025733A2025730D0A000010B5040070
:101990000AD0FFF771F92146BDE8104082B2034832
:1019A0004FF47A7302F088BC10BD000028010024B7
:1019B000FEE700002DE9F04752490023524801227A
:1019C00002F000FC002812D14E4800234F4C4FF487
:1019D000807A401E4FF47A7542780D2A09D00A2A7F
:1019E00007D00178FF297AD262544B1C0370BDE8FE
:1019F000F08701780029FAD063540722984644A161
:101A0000814641482B4602F057FC4048FFF734F925
:101A100082B23E493C482B4602F04EFC3A48022234
:101A20003DA12B4602F048FC384806F061F8064616
:101A300005F042FF044605F043FF082207463248FE
:101A400036A12B4602F038FC47B1387830B1384621
:101A5000FFF712F982B22B46394604E0012E2B46DD
:101A600010D0052230A1284802F026FC2648022288
:101A700029A12B4602F020FC56B1022E05D0032EE0
:101A800003D02EE00B222AA1EDE74CB3207838B327
:101A90001D48052229A12E462B4602F00DFCBCB1A3
:101AA0002078A8B12046FFF7E7F885B216483346FC
:101AB0002A46214602F000FC25B1601910F8010CFD
:101AC0000A2805D00222334613A10F4802F0F4FB86
:101AD0000E485146FFF7F3F989F8008087E704E0E4
:101AE000FFE712222B4617A1EFE703705146074884
:101AF000FFF7E5F92B460448BDE8F047102216A190
:101B000002F0DABB25000024280100242C0A00245E
:101B10000D0A434D443A20000D0A0000535441542D
:101B200055533A20000000004552524F5200000029
:101B3000554E4B4E4F574E5F434D440052583A0D51
:101B40000A00000052583A0D0A554E4B4E4F574E60
:101B500020434D440D0A00000D0A434D4420544FCC
:101B60004F204C4F4E470D0A00000000704772B6E0
:101B7000FEE70000054805490839026842F0020204
:101B8000026008688004FCD5704700000C480258C9
:101B90002DE9F84F044600F0F1FB00903CB194F8B9
:101BA0003500022806D0802161650020E4E0012094
:101BB000BDE8F88FC74DC74EC64918352068303686
:101BC000DFF81483DFF814938842DFF814A3DFF8FA
:101BD00014B328D0A84226D0B04224D0404522D009
:101BE000484520D050451ED058451CD0BD4A18321B
:101BF000904218D0BC4A904215D0BB4A183290424D
:101C000011D0B94A303290420DD0B74A4832904292
:101C100009D0B54A6032904205D0B34A783290423A
:101C200001D0B14A9032026822F0010202602068BD
:101C300088422ED0A8422CD0B0422AD0404528D08D
:101C4000484526D0504524D0584522D0A54A1832C0
:101C500090421ED0A44A90421BD0A34A1832904210
:101C600017D0A14A3032904213D09F4A4832904256
:101C70000FD09D4A603290420BD09B4A78329042FE
:101C800007D0994A9032904203D0974AA8329042A6
:101C900009D1026822F01E0202602068426922F027
:101CA0008002426103E0026822F00E0202602768AF
:101CB000884938468F424DD0A8424BD0B04249D0D7
:101CC000404547D0484545D0504543D0584541D080
:101CD0008449183188423DD0834988423AD08249AC
:101CE0001831884236D080493031884232D07E491E
:101CF000483188422ED07C49603188422AD07A49C6
:101D00007831884226D078499031884222D076496D
:101D1000A83188421ED0754988421BD073491431BE
:101D2000884217D071492831884213D06F493C311D
:101D300088420FD06D49503188420BD06B496431D5
:101D4000884207D069497831884203D067498C318D
:101D50008F4214D1206E016821F4807101600EE081
:101D600000F00CFB0099401A052808D92022626572
:101D70000321002084F8351084F8340017E7386810
:101D8000C007EDD1534A0121206890422ED0A842CD
:101D90002CD0B0422AD0404528D0484526D05045C6
:101DA00024D0584522D04F4B183398421ED04E4B6A
:101DB00098421BD04C4B1833984217D04A4B3033C3
:101DC000984213D0484B483398420FD0464B60336B
:101DD00098420BD0444B7833984207D0424B903313
:101DE000984203D0404BA833984208D194F85C70D5
:101DF0003F23A06D07F01F07BB40836007E094F806
:101E00005C30A06D03F01F0301FA03F34360206808
:101E100090424DD0A8424BD0B04249D0404547D027
:101E2000484545D0504543D0584541D02D4A1832F9
:101E300090423DD02C4A90423AD02B4A18329042E0
:101E400036D0294A3032904232D0274A4832904226
:101E50002ED0254A603290422AD0234A78329042CE
:101E600026D0214A9032904222D01F4AA832904276
:101E70001ED01E4A90421BD01C4A1432904217D0EA
:101E80001A4A2832904213D0184A3C3290420FD05E
:101E9000164A503290420BD0144A6432904207D016
:101EA000124A7832904203D0104A8C3290420BD1C1
:101EB000D4E919024260E06E30B1026822F4807207
:101EC0000260D4E91C024260002084F8351084F8D6
:101ED00034006DE6100002405800024070000240DD
:101EE00088000240A000024010040240085402583A
:101EF0002DE9F05F28B190F83510022904D0802137
:101F000041650120BDE8F09F764A764BDFF8D4C1E9
:101F1000183201683033744CDFF8D0B16145744D2C
:101F2000744E754FDFF8D4E1DFF8D4A1DFF8D49117
:101F300031D091422FD099422DD0A1422BD059457A
:101F400029D0A94227D0B14225D0B94223D0DFF809
:101F5000AC81A8F1780841451DD0DFF8A081A8F137
:101F60006008414517D0DFF89481A8F14808414541
:101F700011D0DFF88881A8F1300841450BD0DFF897
:101F80007C81A8F11808414505D0714503D0514521
:101F900001D049452AD14FF0040880F835806145C9
:101FA0001FD091421DD099421BD0A14219D0594552
:101FB00017D0A94215D0B14213D0B94211D04F4821
:101FC000783881420DD04D486038814209D04B4865
:101FD0004838814205D049483038814201D04748CD
:101FE0001838086820F00100086078E0D1F8008017
:101FF00028F00108C1F800800168D1F8008028F0BD
:102000000E08C1F800800168614546D0914244D075
:10201000994242D0A14240D059453ED0A9423CD03D
:10202000B1423AD0B94238D0344A783A914234D0A9
:10203000324A603A914230D0304A483A91422CD0EC
:102040002E4A303A914228D02C4A183A914224D054
:10205000714522D0514520D049451ED02A4A91428F
:102060001BD0294A1432914217D0274A2832914274
:1020700013D0254A3C3291420FD0234A503291422C
:102080000BD0214A6432914207D01F4A78329142E4
:1020900003D01D4A8C32914218D1026E012113687F
:1020A00023F48073136090F85C30826D03F01F039B
:1020B00099405160D0E919124A60C16E31B10A6885
:1020C00022F480720A60D0E91C124A600122016D7C
:1020D000002380F8352080F8343001B18847002093
:1020E00010E700001000024058000240700002405B
:1020F00088000240A0000240B8000240880402406C
:10210000A0040240B80402400854025870B50446C6
:1021100000F034F90546601C02D0044800780444FD
:1021200000F02CF9401BA042FAD370BD000000243F
:102130002DE9F84F03247F4D00234FF001094FF0A4
:10214000B04B4FF00F0AEDE009FA03F632407AD0B7
:102150000F7907F00307012F01D0022F19D18768EB
:102160004FEA430ED1F80CC004FA0EF827EA08072C
:102170000CFA0EFC4CEA070CC0F808C0D0F804C0FA
:102180000F792CEA060CC7F300179F4047EA0C07AB
:1021900047600E79F643B60702D18E68012E0BD048
:1021A000C6684FEA43088F6804FA08FC26EA0C0662
:1021B00007FA08F73743C7600E7906F00306022EC8
:1021C00012D1DE080F694FEA437C00EB8606B64663
:1021D000366A4FEADC6C0AFA0CF807FA0CF726EAC2
:1021E00008063743CEF820700F7906684FEA430897
:1021F00007F0030704FA08FC07FA08F726EA0C06BA
:10220000374307604E6816F4403F1CD04A4E37688B
:1022100047F00207376036689F0706F0020600960F
:1022200023F0030606F1B046B6463F0FD6F8086421
:10223000DFF808810AFA07FC404526EA0C0603D1BC
:102240004FF0000C41E06CE0DFF8F4C0604502D1D3
:102250004FF0010C39E0DFF8ECC0604502D14FF0DF
:10226000020C32E0DFF8E0C0604502D14FF0030C11
:102270002BE0DFF8D8C0604502D14FF0040C24E019
:10228000DFF8CCC0604502D14FF0050C1DE0DFF84F
:10229000C4C0604502D14FF0060C16E0DFF8B8C0AC
:1022A000604502D14FF0070C0FE0DFF8B0C0604589
:1022B00002D14FF0080C08E0DFF8A4C0604502D15D
:1022C0004FF0090C01E04FF00A0C0CFA07FC4CEA45
:1022D000060CCEF808C44F68DBF80060FF0226EA5F
:1022E000020600D516435F46CBF80060D1F804C063
:1022F000DBF804605FEA8C2C26EA020600D5164360
:102300007E606E684F6826EA0206BF0300D516435A
:102310006E602E684F6826EA0206FF0300D516435A
:102320002E605B1C0A6832FA03F67FF40DAFBDE83D
:10233000F88F000080000058F44402580000025852
:102340000004025800080258000C025800100258FD
:102350000014025800180258001C025800200258AD
:10236000002402580AB1816170470904FBE70000AC
:1023700001480068000C70470010005C014880684C
:102380007047000000000024024881680278114470
:102390008160704700000024032010B500F0D4F8DD
:1023A00001F0AEF80F4A104914681368C4F3032211
:1023B00003F00F038A5CC95C02F01F0201F01F01E9
:1023C000D0400A4A20FA01F11160094908600F2043
:1023D00000F010F808B1012010BD00F079F80020DD
:1023E00010BD000018440258CE89000810000024D7
:1023F0000C00002470B50D4D04462878A0B14FF4B0
:102400007A71B1FBF0F00A490968B1FBF0F001F014
:10241000D4FB48B9102C07D200222146501E00F0F0
:1024200073F800206C6070BD012070BD00000024B6
:102430000C000024154BF0B5083B427813491A6094
:102440000B680A1F23F001030B6043681360057BD0
:10245000C67A827A437B2D07847B45EA0665C77B73
:1024600090F809C0067A90F800E045EAC24040EAD8
:10247000834040EA444040EA074040EA0C2040EAFA
:10248000460040EA0E000860F0BD0000A0ED00E04C
:10249000BFF35F8F044800210368034A23F48033AD
:1024A000036070321160704724ED00E0074A40F08D
:1024B0000100064970321060086840F480300860FE
:1024C000BFF34F8FBFF36F8F7047000024ED00E024
:1024D000054808B5016841F002010160006800F09C
:1024E0000200009008BD0000F4440258002809DBF7
:1024F000410900F01F028900012001F1E021904014
:10250000C1F80001704700000E4BF0B41B680D4687
:10251000C3F30223C3F10706042E00D90426191DB4
:10252000072901D2002300E0DB1E012404FA06F192
:102530009C40491E2940641E994014402143F0BC30
:1025400006F0C9B90CED00E0064900F0070210B52D
:102550004FF6FF040868044B204040EA022018436D
:10256000086010BD0CED00E00000FA05134970B5DD
:102570000A68D243520705D5096801F00701814274
:1025800013D118E00A6822F0070202430A60FFF73D
:10259000F5FE0A4D4FF47A760446083D07E000BF89
:1025A000FFF7ECFE001BB04201D9012070BD286886
:1025B000C0438004F4D4002070BD00000C480258D1
:1025C00010B500F057FF05490968054AC1F302112B
:1025D000515C01F01F01C84010BD000020440258AA
:1025E000CE890008494930B5484C0B1D0A6814349F
:1025F00009681D68246802F00303C5F30012C1F3E3
:102600000531C4F3CC04002914FB02F200EE102AB9
:10261000F8EE400A75D03F4A9FED3D1AB7EE000A2A
:102620006BB1DFED3D1A012B01D0022B64D002EE1D
:10263000101A1168F8EE422A81EEA22A21E0334CEA
:10264000283C23689B0612D5344B246801EE901A6F
:102650001168C4F3C104F8EE612AE34001EE903A38
:10266000C1F30801F8EE611A81EEA22A0BE001EE37
:10267000901ADFED2B2A00BFF8EE611A116882EE86
:10268000A12AC1F3080101EE901A1168F8EE611A4F
:1026900040EE811A71EE800A62EE200AC1F34621F3
:1026A00001EE101AB8EE411A31EE001AC0EE811A8E
:1026B000BCEEE11A80ED001A1168C1F3064101EE8B
:1026C000101AB8EE411A31EE001AC0EE811ABCEEB3
:1026D000E11A80ED011A1168C1F3066101EE101ACA
:1026E000B8EE411A31EE000A80EE801ABCEEC10A43
:1026F00080ED020A30BD04E001EE901ADFED092AF8
:10270000BAE70021016041608160F3E72844025884
:1027100000000039384402580024744A0090D00365
:102720000024744C20BCBE4B494930B5484C0B1DAD
:102730000A681C3409681D68246802F00303C5F3A5
:102740000022C1F30551C4F3CC04002914FB02F2AA
:1027500000EE102AF8EE400A75D03F4A9FED3D1A70
:10276000B7EE000A6BB1DFED3D1A012B01D0022B51
:1027700064D002EE101A1168F8EE422A81EEA22A05
:1027800021E0334C283C23689B0612D5344B246847
:1027900001EE901A1168C4F3C104F8EE612AE34017
:1027A00001EE903AC1F30801F8EE611A81EEA22A17
:1027B0000BE001EE901ADFED2B2A00BFF8EE611A54
:1027C000116882EEA12AC1F3080101EE901A116886
:1027D000F8EE611A40EE811A71EE800A62EE200A6C
:1027E000C1F3462101EE101AB8EE411A31EE001A7B
:1027F000C0EE811ABCEEE11A80ED001A1168C1F337
:10280000064101EE101AB8EE411A31EE001AC0EE80
:10281000811ABCEEE11A80ED011A1168C1F306615C
:1028200001EE101AB8EE411A31EE000A80EE801A5D
:10283000BCEEC10A80ED020A30BD04E001EE901A40
:10284000DFED092ABAE70021016041608160F3E70A
:102850002844025800000039404402580024744AB9
:102860000090D0030024744C20BCBE4B2DE9FE4FD9
:102870000546DFF8E48350F8081B0024F64FC943EF
:10288000019005F12800264608F12408009008016F
:102890001DD4A86E50B1B0F5801F0CD0B0F5001F4C
:1028A0000ED0B0F5401F1ED001240FE0386840F470
:1028B0000030386017E00198022105F0ABFA03E020
:1028C0000098022105F036FB04000CD0264628882B
:1028D000C043C00523D4A86D05281ED2DFE800F050
:1028E0000C11161B1B00AA6ED8F8001021F4401121
:1028F0001143C8F80010EAE7386840F40030386047
:1029000009E00198002105F085FA03E00098002114
:1029100005F010FB044674B100E001242646288827
:10292000C043800528D4E86D80281ED00CDC90B10F
:1029300040280ED114E0AA6DD8F8001021F007014C
:102940001143C8F80010EAE7C02813D0B0F5807F23
:1029500010D001240FE0386840F40030386009E0FE
:102960000198002105F056FA03E00098002105F0D7
:10297000E1FA04469CB126462888DFF8DC92C04381
:1029800009F12C0940052CD4D5F8A800B0F5800F2A
:1029900020D00DDCA0B1B0F5001F0FD115E0EA6D1D
:1029A000D8F8001021F4E0711143C8F80010E3E7F3
:1029B000B0F5C00F13D0B0F5000F10D001240FE018
:1029C000386840F40030386009E00198002105F0D3
:1029D00021FA03E00098002105F0ACFA04467CB12E
:1029E00026462888C04300052DD4D5F8AC00B0F1A8
:1029F000007F21D00EDCA8B1B0F1807F10D116E0AD
:102A0000D5F8A820D9F8001021F460011143C9F8C5
:102A10000010E6E7B0F1407F13D0B0F1806F10D026
:102A200001240FE0386840F40030386009E0019874
:102A3000002105F0EFF903E00098002105F07AFA93
:102A4000044674B126462868C04380011FD4E86C50
:102A5000D8B110280FD0202812D0302815D001244A
:102A600014E0D5F8AC20D9F8001021F0E061114352
:102A7000C9F80010E7E7386840F40030386004E037
:102A80000198022105F0C6F9044674B1264628884B
:102A9000C043C0042BD4286EB0F5005F20D00DDCFD
:102AA000A0B1B0F5805F0FD115E06B48EA6C203023
:102AB000016821F0300111430160E8E7B0F5405FA3
:102AC00013D0B0F5804F10D001240FE0386840F4E7
:102AD0000030386009E00198002105F09BF903E01F
:102AE0000098002105F026FA04468CB12646288875
:102AF000C043800429D4686EB0F5403F23D010DC79
:102B000008B3B0F5803F14D0B0F5003F0FD115E009
:102B10002A6ED8F8001021F4E0411143C8F80010E3
:102B2000E5E7B0F5802F0ED0B0F5A02F0BD0012433
:102B30000AE00198012105F06DF903E000980121F8
:102B400005F0F8F9044694B126462888C0434004AD
:102B50002AD4D5F8B000B0F1405F23D010DC08B320
:102B6000B0F1805F14D0B0F1005F0FD115E06A6E54
:102B7000D8F8001021F4E0211143C8F80010E4E770
:102B8000B0F1804F0ED0B0F1A04F0BD001240AE07D
:102B90000198012105F03EF903E00098012105F0BC
:102BA000C9F9044674B126462888C04300041FD4DE
:102BB000286FD8B1B0F1805F0ED0B0F1005F10D0B7
:102BC000012414E0D5F8B020D9F8001021F0E0413C
:102BD0001143C9F80010E7E7386840F40030386066
:102BE00004E00198012105F015F9044674B1264668
:102BF0002868C043C0011ED4A86CD0B101280ED0F3
:102C0000022811D0032814D0012413E02A6FD8F829
:102C1000001021F040511143C8F80010E8E738686F
:102C200040F40030386004E00198022105F0F2F829
:102C30000446ACB126462868DFF81CB0C043ABF1AF
:102C40001C0B400252D40548016841F480710160B8
:102C5000FFF794FB824611E02C44025800480258CA
:102C6000FA48AA6C016821F0030111430160E2E710
:102C7000FFF784FBA0EB0A00642835D8F44800680D
:102C8000C005F5D58CBBDFF8C4A3B5F8B4100AF1C4
:102C9000240ADAF8000001F4407100F44070884220
:102CA00011D0DAF80010DAF8002021F4407142F473
:102CB0008032CAF80020DAF8002022F48032CAF804
:102CC0000020CAF80010D5F8B400B0F5807F1AD102
:102CD000FFF754FB029012E0FFF750FB0299411AF4
:102CE00041F2883081420AD9032426462878DFF849
:102CF0005CA3C0430AF1080AC00721D03CE0DAF81F
:102D000000008007E8D5D5F8B410C1F301200328EE
:102D100058460DD0016821F47C510160B5F8B4200B
:102D2000DAF80010C2F30B021143CAF80010DDE715
:102D3000C84A036802EA111223F47C511143ECE7FC
:102D4000E86F182816D005DCA0B1082808D0102894
:102D500004D10AE020280DD028280BD001240AE055
:102D60000198012105F056F803E00098012105F0D3
:102D7000E1F8044664B126462878C04380071ED493
:102D8000A86F062819D2DFE800F0160C11161616E7
:102D9000EA6FDAF8001021F038011143CAF8001088
:102DA000EAE70198012105F035F803E000980121D8
:102DB00005F0C0F804467CB100E0012426462878DE
:102DC000C04340071FD4D5F89400062819D2DFE885
:102DD00000F0160C11161616AA6FDAF8001021F082
:102DE00007011143CAF80010E9E70198012105F035
:102DF00011F803E00098012105F09CF80446A4B105
:102E000000E0012426462878C04380062BD4D5F85C
:102E10009000B0F1405F24D011DC10B3B0F1805FBE
:102E200015D0B0F1005F10D116E0D5F89420D9F894
:102E3000001021F007011143C9F80010E3E7B0F1D9
:102E4000804F0ED0B0F1A04F0BD001240AE00198C2
:102E5000002104F0DFFF03E00098022105F06AF88A
:102E6000044694B126462878C04340062BD4D5F8B2
:102E70009C00B0F5406F24D011DC10B3B0F5806F2A
:102E800015D0B0F5006F10D116E0D5F89020DAF823
:102E9000001021F0E0411143CAF80010E3E7B0F55B
:102EA000805F0ED0B0F5A05F0BD001240AE001983E
:102EB000002104F0AFFF03E00098022105F03AF88A
:102EC000044694B126462878C04300062BD4D5F892
:102ED000A000B0F5C04F24D011DC10B3B0F5005FF6
:102EE00015D0B0F5804F10D116E0D5F89C20D9F858
:102EF000001021F4E0511143C9F80010E3E7B0F5E8
:102F0000004F0ED0B0F5204F0BD001240AE00198FD
:102F1000002104F07FFF03E00098022105F00AF889
:102F2000044654B126462878C04300071ED4D5F87D
:102F30008400B0F5805F0AD00FE0D5F8A020D9F862
:102F4000001021F460411143C9F80010EBE700982C
:102F5000022104F0EFFF00B10126D5F88420DAF851
:102F6000001021F440511143CAF800102878C043E2
:102F7000C00613D4D5F89800B0F5807F05D100982D
:102F8000022104F0D7FF00B10126D5F89820D9F826
:102F9000001021F440711143C9F800102868C043A3
:102FA000000316D4D5F8A40038B1B0F5803F09D09D
:102FB000B0F5003F0BD001240AE00198002104F095
:102FC00029FF03E00098022104F0B4FF04468CB10D
:102FD00026462868C043400322D4D5F88800B0F5BF
:102FE000801F11D0B0F5001F13D0B0F5401F15D0D1
:102FF000012414E0D5F8A420D9F8001021F44031C0
:103000001143C9F80010E4E7386840F40030386034
:1030100004E00098012104F08DFF04465CB12646CF
:103020002868C043C00323D4286DA8B1B0F5803F01
:1030300017D001241BE0D5F88820DAF8001021F41D
:1030400040111143CAF80010EAE700004C4402584E
:1030500000480258CFFFFF00386840F40030386065
:1030600004E00198022104F0D5FE0446E4B12646AE
:103070002868C043800005D40098022104F05AFF5C
:1030800000B101262868C04380031BD4D5F8800016
:10309000B0B1B0F5807F0FD0B0F5007F10D0B0F5A3
:1030A000407F0DD001240CE05A482A6D016821F4BC
:1030B000803111430160DBE7386840F4003038604C
:1030C000ECB326462868C043C00207D46A6FD8F81C
:1030D000001021F000411143C8F800102868C043D7
:1030E000C00008D4D5F8B820DBF8001021F48041E6
:1030F0001143CBF800102868C043800207D4EA6E61
:10310000D8F8001021F080711143C8F80010286829
:10311000C04340000CD4DBF8001021F40041CBF890
:103120000010DBF80010D5F8BC201143CBF80010DC
:103130002868C04308D437486A6D016800E018E089
:1031400021F04051114301602868C043000208D4B7
:10315000D5F88C20DAF8001021F440011143CAF8A8
:10316000001028790024C04300F0010020430AD059
:103170000FE0D5F88020DAF8001021F440711143F7
:10318000CAF800109EE70198002104F043FE00B148
:1031900006462879C04300F00200204305D101987B
:1031A000012104F037FE00B106462879C04300F043
:1031B0000400204305D10198022104F02BFE00B148
:1031C00006462879C04300F00800204305D1009846
:1031D000002104F0AFFE00B106462879C04300F09C
:1031E0001000204305D10098012104F0A3FE00B196
:1031F00006462879C04300F02000044304D100981B
:10320000022104F097FE00B916B10120BDE8FE8F3F
:103210000020FBE74C4402582DE9F05F04000F4604
:103220007ED0DFF83882D8F8000000F00F00B842F6
:103230000CD2D8F8001021F00F013943C8F8001063
:10324000D8F8000000F00F00B84269D12078844D12
:1032500040070AD52069296801F07001884204D925
:10326000296821F070010143296020787C4E361DC9
:1032700000070AD56069316801F07001884204D9FD
:10328000316821F07001014331602078C0060AD511
:10329000A069316801F4E061884204D9316821F401
:1032A000E061014331602078DFF8B4B180060BF1B2
:1032B000080B0CD5E1695846DBF8002002F07002DB
:1032C000914204D9026822F070020A430260207819
:1032D00080070AD5E068296801F00F01884204D907
:1032E000296821F00F01014329602078C0073ED0F2
:1032F0005B49A2682868183920F470601043286080
:103300006068022818D0032819D00968012819D04C
:10331000490700294ADADFF848A1AAF1080A00E0C3
:1033200044E0DAF8002022F007020243CAF8002045
:10333000FFF724F8814612E009688903E9E7096884
:103340008901E6E7C905E4E7FFF718F8A0EB0901F2
:1033500041F28830814202D90320BDE8F09F6168C4
:10336000DAF8000000F03800B0EBC10FECD12078A3
:1033700080070AD5E068296801F00F01884204D26D
:10338000296821F00F0101432960D8F80010404658
:1033900001F00F01B9420BD9016821F00F01394347
:1033A0000160006800F00F00B84201D00120D4E7AE
:1033B000207840070AD52069296801F07001884209
:1033C00004D2296821F070010143296020780007A8
:1033D0000AD56069316801F07001884204D2316811
:1033E00021F07001014331602078C0060AD5A06940
:1033F000316801F4E061884204D2316821F4E0616F
:1034000001433160207880060CD5E1695846DBF82D
:10341000002002F07002914204D2026822F0700291
:103420000A43026000F06CF80E492A682B68C2F368
:10343000032203F00F038A5CC95C02F01F0201F053
:103440001F01D040084A20FA01F1116007490860C5
:1034500007480068BDE8F05FFEF7CCBF00200052CF
:1034600018440258CE890008100000240C000024E3
:103470000400002430B500F043F80B4A0B490C4B14
:1034800015681468C5F3032204F00F048A5C095D13
:1034900002F01F0201F01F01D040064A20FA01F19C
:1034A00019601060084630BD18440258CE890008E3
:1034B000100000240C00002400B5FFF7DBFF0549D5
:1034C0000968054AC1F30211515C01F01F01C840AF
:1034D00000BD00001C440258CE89000800B5FFF76B
:1034E000C9FF05490968054AC1F30221515C01F091
:1034F0001F01C84000BD00001C440258CE890008CE
:10350000454970B545480968434B103B11F03802F6
:1035100008D00111082A03D0102A0BD0182A0BD08A
:10352000084670BD19688906FBD51968C1F3C10149
:10353000C84070BD3A4870BD3749374D18310C1D31
:1035400024350A68096826682D6802F0030406F02D
:103550000102C1F30511C5F3CC0515FB02F200EE23
:10356000102AB8EE400AE9B32F4ADFED2E0AB7EE73
:10357000001A6CB1DFED2D1A012C01D0022C43D0C2
:1035800002EE101A1068F8EE422A81EEA22A1EE01E
:103590001C68A40611D51B6801EE901A1168C3F3CC
:1035A000C103F8EE612AD84001EE900AC1F3080089
:1035B000F8EE611A81EEA22A0BE001EE901ADFED1F
:1035C0001C2A00BFF8EE611A106882EEA12AC0F32F
:1035D000080001EE900AF8EE611A40EE201A31EE72
:1035E000810A00E015E022EE000A1068C0F34620D0
:1035F000401C00EE900AF8EE600A80EE201ABCEE45
:10360000C10A10EE100A70BD01EE901ADFED092A12
:10361000D8E7002070BD0000104402580090D0038D
:1036200040787D0100000039304402580024744A7B
:103630000024744C20BCBE4B2DE9F05F04007DD00B
:10364000FF4F2078FE4D1837DFF8F493103DC00788
:1036500048D0D9F80000396800F03800102815D09B
:10366000182803D101F0030002280FD06068B0F5DC
:10367000803F12D010B1B0F5A02F18D0286820F4E8
:1036800080302860286820F4802009E028688003C2
:1036900028D560680028D2D024E0286840F4803023
:1036A0002860606888B1FEF769FE064609E0286870
:1036B00040F480202860F0E7FEF760FE801B64285D
:1036C0006FD828688003F7D50CE0FEF757FE064652
:1036D00005E000BFFEF752FE801B6428F0D8286882
:1036E0008003F7D4207841F20308D54E0C3E8007C2
:1036F00069D5D9F80000396810F038000ED01828C4
:1037000001D188070AD0E06890B3296821F0190137
:1037100001432960FEF732FE824631E02868400707
:1037200002D5E06800288AD0E168286820F01900F6
:1037300008432860FEF722FE824607E0DFE000BF74
:10374000FEF71CFEA0EB0A000228B9D82868400743
:10375000F6D500BFFEF70CFE40451BD82069402877
:1037600012D0316821F47C3141EA003030602AE027
:1037700018E000BFFEF702FEA0EB0A0002289FD867
:1037800028684007F6D5E5E7306820F47C3040F43F
:103790000030EBE7207C316821F0FE4141EA006017
:1037A000E4E70DE1286820F001002860FEF7E6FD5F
:1037B000824605E0FEF7E2FDA0EB0A0002288DD864
:1037C00028684007F6D42078C0065DD5D9F80000F7
:1037D000DFF86CB2396800F03800ABF1040B082850
:1037E00010D0182803D101F0030001280AD0E069A5
:1037F0000028286838D040F080002860FEF7BEFD21
:10380000824623E02868C00523D5E069802876D168
:103810001FE0206A202821D0316821F0F84141EAD8
:103820008060306030E000BF94F82010DBF80020AA
:1038300022F07C5242EA0161CBF8001024E000BF84
:10384000FEF79CFDA0EB0A00022898D82868C00566
:10385000F6D5FEF78DFD4045E6D8DAE7306820F072
:10386000F84040F08040DCE720F080002860FEF760
:1038700085FD064605E000BFFEF780FD801B02289F
:103880009DD82868C005F7D42078000729D56C4852
:103890006169643000298046016811D041F001015E
:1038A0000160FEF76BFD064605E000BFFEF766FD12
:1038B000801B0228C9D8D8F800008007F6D510E090
:1038C00021F001010160FEF759FD064605E000BF49
:1038D000FEF754FD801B022872D8D8F8000080073C
:1038E000F6D42078800623D5A0690028286810D057
:1038F00040F480502860FEF741FD064605E036E1C1
:10390000FEF73CFD801B02285AD828688004F7D5B2
:103910000EE020F480502860FEF730FD064604E0FB
:10392000FEF72CFD801B02284AD828688004F7D4B3
:10393000207840074FD5DFF80C81D8F8001041F40B
:103940008071C8F80010FEF719FD064605E000BFBB
:10395000FEF714FD801B642832D8D8F80000C0059B
:10396000F6D5374EA068603601280AD008B1052880
:1039700013D0306820F001003060306820F004007F
:1039800002E0306840F001003060A06841F2883AFF
:1039900090B1FEF7F3FC80460AE0306840F0040086
:1039A0003060EEE7FEF7EAFCA0EB0801514507D8CE
:1039B00030688007F6D50EE0FEF7E0FC804607E0B1
:1039C00084E000BFFEF7DAFCA0EB080151457DD88A
:1039D00030688007F6D4606AB0B3DFF86480D9F845
:1039E000001008F120084FF6F87B08F10409C1F334
:1039F000C2010329A8F1040A69D00228286820F02E
:103A00008070286003D0FEF7B9FC044684E0FEF71E
:103A1000B5FC064605E000BFFEF7B0FC801B02289F
:103A200077D828688001F7D4E26A40F2F331386829
:103A300054F8283F884340EA02101843386004E0F5
:103A40001044025800480258B5E0217B43462289C1
:103A50004FF4FE0C208A4FF0FE474902267D521E8D
:103A6000401EA1F50071C2F308088AB2761E0CEA66
:103A7000004042EA08020243504607EA06610A4350
:103A80001A60DAF8002022F00102CAF80020D9F802
:103A90000020266A22EA0B0242EAC602C9F8002088
:103AA000DAF80010A26921F00C011143CAF80010E5
:103AB0000168E26921F0020111430160016841F4EB
:103AC00080310160016841F4003101E021E027E02C
:103AD0000160016841F480210160016841F0010149
:103AE0000160286840F080702860FEF747FC0446BB
:103AF00005E000BFFEF742FC001B022809D8286839
:103B00008001F7D557E000BFFEF738FC001B022804
:103B100002D90320BDE8F09F28688001F4D44AE070
:103B200039680128D8F8000021D0A26A01F0030307
:103B300093421CD1E26AC1F305118A4217D1216B6D
:103B4000C0F30802491E8A4211D1616BC0F34622BC
:103B5000491E91420BD1A16BC0F30642491E91420E
:103B600005D1E16BC0F30660491E814201D00120FE
:103B7000D0E7A16C4E46D9F80000C0F3CC008142DA
:103B800019D0DAF80000554620F00100CAF800000C
:103B9000FEF7F4FB4FEA0007FEF7F0FBB842FBD05C
:103BA000A26C306820EA0B0040EAC200306028684E
:103BB00040F0010028600020ACE7401EB0F1807F9B
:103BC00010B501D3012010BD4FF0E02460610F213A
:103BD000601704F080FE0020A0610721216110BD64
:103BE00030B590F88410012918D0012280F8842083
:103BF0002421C0F888100022202401680B680D6879
:103C000023F0005325F001050D60426601680B604A
:103C1000C0F8884080F88420104630BD022030BDB6
:103C20007047704770B5044690F8840001281DD095
:103C3000012284F884202420C4F8880020680568C4
:103C4000026822F0010202602068826822F060624D
:103C50000A438260204604F00DFB226820210020E8
:103C60001560C4F8881084F8840070BD022070BD0F
:103C700070B5044690F8840001281DD0012284F814
:103C800084202420C4F8880020680568026822F097
:103C9000010202602068826822F060420A4382606A
:103CA000204604F0E7FA2268202100201560C4F8BD
:103CB000881084F8840070BD022070BD7047704782
:103CC000704700002DE9F04107680025044640F6E2
:103CD0000F030226F8693968BA6818420AD18306C8
:103CE0007ED501F0200302F0805C53EA0C0377D00C
:103CF000616F7EE1D44BDFF854C3134001EA0C0C32
:103D000053EA0C0C6CD05FEAC07C0CD05FEAC15C5B
:103D100009D54FF0010CC7F820C0D4F8907047F0D7
:103D20000107C4F89070870709D5D70707D027681F
:103D30003E62D4F8906046F00406C4F890604607EE
:103D40000AD5D60708D0276804263E62D4F89060CA
:103D500046F00206C4F8906006070CD501F0200674
:103D60001E4308D0266808233362D4F8903043F00D
:103D70000803C4F8903003050BD54B0109D526681C
:103D80004FF400633362D4F8903043F02003C4F85A
:103D90009030D4F89030002B3DD0800609D501F04A
:103DA000200002F08051084303D0616F09B1204622
:103DB00088472168D4F890008968490602D410F039
:103DC000280F2AD0204604F035FB20688068400682
:103DD0001ED52068083050E8001F21F0400100E0A7
:103DE00021E040E80012002AF3D1D4F8800078B135
:103DF00097490165D4F88000FEF77AF800280AD0C8
:103E0000D4F88000016D00E02046BDE8F04108478D
:103E10002046FFF755FFBDE8F0812046FFF750FF31
:103E2000C4F89050F7E7D4F86CC02023BCF1010F20
:103E30007ED15FEAC06C7BD55FEAC16C78D510207B
:103E4000386220688068400673D5D4F880208149A4
:103E50001068884234D07F491831884230D07D497B
:103E6000303188422CD07B494831884228D079496A
:103E70006031884224D077497831884220D0754912
:103E8000903188421CD07349A831884218D07249B9
:103E9000884215D070491831884211D06E493031AE
:103EA00088420DD06C494831884209D06A49603156
:103EB000884205D068497831884201D066499031FE
:103EC00040684FF480770004000C40D0B4F85C10D8
:103ED00081423CD9A4F85E00D069B8422FD0216855
:103EE00051E8000F20F4807041E80002002AF6D16A
:103EF0002068083050E8001F21F0010140E800125E
:103F0000002AF5D12068083050E8001F21F0400158
:103F100040E80012002AF5D1C4F88C30E56620682C
:103F200050E8001F21F0100140E80012002A01E0D3
:103F30004AE019E0F3D1D4F88000FDF729FE2667A6
:103F4000B4F85C00B4F85E10401A81B208E0B4F82E
:103F50005C1081427FF466AFD069B842FAD126671F
:103F60002046FFF75DFE56E7B4F85C00B4F85E103B
:103F7000B4F85E20401A81B2002AF4D00029F2D0B1
:103F8000226852E8000F20F4907042E80007002FEA
:103F9000F6D1324F206800F1080050E8002F02EA05
:103FA000070240E8002CBCF1000FF3D1C4F88C30BC
:103FB000E5666567226852E8000F20F0100042E8CD
:103FC0000003002BF6D1CAE7C60209D5560207D571
:103FD0004FF4801038622046BDE8F041FFF76FBE15
:103FE00006060AD501F0800602F40002164304D04A
:103FF000A16F00297FF408AF0DE7420611D54A06EC
:104000000FD52046016851E8002F22F0400241E818
:104010000024002CF6D1C0F88830856700F0A8F99C
:10402000F9E6020206D54A0004D52046BDE8F04173
:10403000FFF744BEC00196D5002994DA2046BDE8BA
:10404000F041FFF7EEBD0000010000102001000468
:104050002B8400081000024010040240FEFFFFEF16
:1040600010B5040003D0D4F8880010B107E0012097
:1040700010BD002084F88400204600F027F824209A
:10408000C4F888002068016821F001010160A06A7D
:1040900010B1204604F010F9204604F0F5F901288B
:1040A000E6D02068416821F4904141602068816831
:1040B00021F02A0181602068016841F0010101605E
:1040C0002046BDE8104004F05BB9000070B5B6B002
:1040D0000446142130A8FCF714FFC0216846FCF701
:1040E00010FF3349022620680025324C884232D125
:1040F00000201F950121CDE900106846FEF7B6FBB0
:1041000008B1FDF734FD2B481030016841F0100173
:104110000160006800F010003590206840F0020057
:1041200020602068042100F0020035904FF44040E8
:104130003090CDE93165CDE933511F4830A9FDF705
:10414000F7FF002225201146FEF7DEF92520FEF7B5
:10415000CDF936B070BD19498842FAD100201E95BC
:104160000221CDE900106846FEF780FB08B1FDF79B
:10417000FEFC10480830016841F40031016000681D
:1041800000F400303590206840F001002060206885
:10419000072100F0010035900C203090CDE9316509
:1041A000CDE93351064830A9FDF7C2FFD1E7000041
:1041B00000100140E044025800040258004400404E
:1041C000000002582DE9F84F0446D0F88C009B46B9
:1041D00016460D46202802D00220BDE8F88F8DB388
:1041E00086B30027C4F890702220C4F88C00E766DC
:1041F0002034FEF7C3F8824654F8180CA6874FF413
:104200008053E687FF21203C984204D12269B2B94D
:1042100040F2FF1113E04FF07F0270B1B0F1805F08
:1042200011D0A4F8607000BFB4F86070984201D15A
:10423000206978B12E4600250DE026693EB9A4F824
:104240006010F1E728E0216909B13F21F7E7A4F800
:104250006020E9E700264FF0200807F0FF0900BFC3
:10426000B4F85E0020B30022534620212046CDF84A
:1042700000B004F0DFFA18B1C4F88C800320ACE77A
:104280002068406A56B100EA090006F8010B00BF39
:10429000D4F88C00222805D001209EE7384025F86C
:1042A000020BF5E7B4F85E00401EA4F85E00D7E705
:1042B000C4F88C80002090E72DE9F84F0446D0F830
:1042C0008800984615460E46202802D00220BDE8F8
:1042D000F88F96B38DB300214FF02109C4F89010E8
:1042E000C4F888901834FEF749F8824654F8100C48
:1042F000A587E587183CB0F5805F01D1206910B132
:104300003546002600E000255FF02007B4F856008F
:1043100053464FF00002CDF80080E0B180212046E6
:1043200004F088FAE0B955B115F8010B21688862EC
:10433000D4F8881039EA010007D00120C7E736F821
:10434000020B2168C0F30800F1E7B4F85600401EE4
:10435000A4F85600DAE74021204604F06BFA18B1C1
:10436000C4F888700320B2E7C4F888700020AEE774
:104370007047FEE738B504004FF00000009017D0FA
:1043800000F0D4F80BA001F0E5FE40F2DC5001F0A3
:104390009FFD00280BD10C4809A1FCF72CFC38B17B
:1043A0000AA16A46FCF7E8FA00982070002038BDA0
:1043B000012038BD41542B43474154543F0D0A005E
:1043C0002B43474154543A00BC0100242B4347413E
:1043D00054543A20256400001CB504004FF000003E
:1043E0000190009018D000F0A1F80CA001F0B2FEEE
:1043F00040F2DC5001F06CFD00280CD10C480AA101
:10440000FCF7F9FB40B101AA6B460AA1FCF7B4FA2C
:104410000098207000201CBD01201CBD41542B437E
:10442000475245473F0D0A002B43475245473A0044
:10443000BC0100242B43475245473A2025642C25D4
:10444000640000001CB504004FF0000001900090D3
:1044500018D000F06BF80CA001F07CFE40F2DC50AC
:1044600001F036FD00280CD10C480AA1FCF7C3FB73
:1044700040B101AA6B460AA1FCF77EFA00982070B1
:1044800000201CBD01201CBD41542B435245473F19
:104490000D0A00002B435245473A0000BC0100249E
:1044A0002B435245473A2025642C25640000000028
:1044B00010B500F03BF804A001F04CFEBDE8104040
:1044C00040F2DC5001F004BD41542B4350494E3FB3
:1044D0000D0A000004484FF4806110B5FCF711FD8F
:1044E00002490020488010BDBC0100241C000024AB
:1044F0000448502110B5FCF704FD03480021417029
:10450000416010BDBC0500241C00002410B5044609
:10451000FCF7B2FB2146BDE8104082B202484FF4DE
:104520007A73FFF7C9BE00002801002410B5FFF719
:10453000D1FF06E00123094909481A46FFF742FE68
:1045400038B9FDF71BFF0446FDF718FF001B0A28CA
:10455000F0D3BDE81040FFF7BDBF00001C000024F1
:104560009400002400487047BC01002470B5050089
:104570000C4617D0B4B1FFF7D9FF0BA001F0EAFD4C
:1045800040F2DC5001F0A4FC00280AD10B4809A13C
:10459000FCF731FB30B10AA123462A46FCF7ECF9BF
:1045A000002070BD012070BD41542B4353510D0AB2
:1045B000000000002B4353513A000000BC010024CE
:1045C0002B4353513A2025642C25640010B540B18B
:1045D0000749497839B107495022FCF73EFC0020D1
:1045E00010BD012010BD5021FCF78BFCF9E7000045
:1045F0001C000024BC0500242DE9F04107000E46F4
:1046000028D03EB3FCF75BFCFFF790FF12A001F04F
:10461000A1FD4FF4FA6001F05BFC002818D11248AC
:104620002221FCF7DEFA040014D02221601CFCF7E2
:10463000D8FA78B1001B401E85B2B54201D3761E70
:10464000B5B23846611C2A46FCF780FB002078553D
:10465000BDE8F0810120FBE741542B434750414422
:1046600044520D0A00000000BC01002470B5040093
:1046700026D05021FCF745FC01F022FE4FF0000649
:1046800008B126701CE001252570FFF711FF08B165
:10469000667015E0201D657004F10801FFF766FFE4
:1046A00070B904F10C00FFF7CDFE48B904F10D001C
:1046B000FFF792FE20B904F10E00FFF75BFE08B190
:1046C000012070BD04F10F002021064600F028F8FB
:1046D00018B10DA13046FCF7A0FA04F12F002021FB
:1046E0000646FFF789FF18B109A13046FCF795FA95
:1046F000094850222146FCF7B0FB084C6570FDF7D5
:104700003DFE6060002070BD554E4B4E4F574E0031
:10471000302E302E302E3000BC0500241C0000242A
:104720002DE9F04107000E4628D03EB3FCF7C7FB49
:10473000FFF7FCFE12A001F00DFD4FF4FA6001F04E
:10474000C7FB002818D111482221FCF74AFA0400BF
:1047500014D02221601CFCF744FA78B1001B401EE3
:1047600085B2B54201D3761EB5B23846611C2A46E1
:10477000FCF7ECFA00207855BDE8F0810120FBE75A
:1047800041542B434F50533F0D0A0000BC010024FD
:1047900010B5FFF79FFEBDE81040FFF7A9BE00006F
:1047A0002DE9F0435FEA00098846ADF20C4D30D0A8
:1047B000B8F1000F2DD04FF4C071A1A803F084F818
:1047C0004FF400720DA9A1A802F027F8002003F011
:1047D0005DFC01281FD025A5012003F057FC01280E
:1047E0001BD022A48DA8FFF7F1FE214E0DAFB0B172
:1047F000FDF7C4FD0097334603944146CDE901051A
:104800001C4A4846FBF762FE00200DF20C4DBDE845
:10481000F0830420F9E718A5DEE717A4E2E7FDF727
:10482000ADFD9DF842320DF263219DF841220DF25B
:10483000432C0DF1140ECDE90BC1CDE90923DDE9BF
:104840008E239DF840C29DF835128EE80E109DF81B
:10485000341233460097094ACDE90341CDE90105F9
:1048600041464846FBF732FECEE700004F46460081
:10487000AE290024E88D00084F4E0000288D000866
:1048800010B5134C2078042804D201F09BFE02F0EE
:1048900017FC1AE00FA002F033FA12A001F05AFC44
:1048A00015A040F6B83102F0F7FE20B115A002F0D5
:1048B000ADF9012010BD0120207001F083FE02F04F
:1048C000FFFB1549032001F029FF002010BD000067
:1048D0002800002441542B4D515454434C4F534510
:1048E0003D31000041542B4D515454434C4F5345DE
:1048F0003D310D0A000000002B4D515454434C4FE4
:1049000053453A005B4D5154545D20436C6F7365C1
:10491000206661696C6564004C290024FEB5474C33
:10492000207838B1062879D201F0A4F9050006D024
:1049300043A009E04AA001F09BFE0520FEBD01F066
:1049400085F9050003D050A001F092FE57E05649CA
:10495000A1F14000054601F031F8060004D053A053
:1049600001F086FE3046FEBD57494FF4806001F1EC
:10497000200691F8452391F84433002AB1F84223E8
:1049800009D003B10123B1F8801002924FA2CDE902
:104990000013334608E003B10123B1F880100292FE
:1049A00052A2CDE90013334601465848FBF78EFD6D
:1049B00057A001F05DFE5EA0314601F06BFE3A4962
:1049C0005EA0803901F066FE60A0294601F062FE1B
:1049D000032020704D4802F093F94C4801F0BAFBD7
:1049E0005EA04EF6602102F0FFFD050009D05EA03A
:1049F00001F03EFE64A002F009F901F093FC2846A4
:104A0000FEBD0427277066A001F032FE02F05CFDB7
:104A10000328054607D00DB1277000E00CE067A021
:104A200002F0F4F8EBE7062020706C4801F020FE5D
:104A30000220314601F072FE0020FEBD2800002455
:104A40005B4D5154545D20544C532076657273690C
:104A50006F6E20736574206661696C65640D0A0071
:104A60005B4D5154545D20436F6E6E6563742064DA
:104A7000656E6965643A206E6574206E6F7420728D
:104A8000656164790D0A00005B4D5154545D2054FA
:104A90004C53206D6F646520636F6E666967206696
:104AA00061696C65640D0A002E2A00245B4D515427
:104AB000545D204D51545455534552206661696CE4
:104AC00065640D0A000000002C29002441542B4D80
:104AD0005154544F50454E3D312C222573222C25E4
:104AE000752C25752C25752C320D0A0041542B4D43
:104AF0005154544F50454E3D312C222573222C25C4
:104B0000752C25752C25750D0A0000002C1A002423
:104B10005B4D5154545D20436F6E6E656374696ED6
:104B2000672062726F6B65722E2E2E0D0A000000D8
:104B30002020486F73743A20000000002020436C4E
:104B400069656E7449443A200000000020205573C6
:104B500065726E616D653A20000000002B4D515466
:104B6000544F50454E3A00005B4D5154545D204225
:104B7000726F6B657220636F6E6E65637420666121
:104B8000696C65640D0A00005B4D5154545D204D05
:104B90005154544F50454E206661696C6564000065
:104BA0005B4D5154545D2042726F6B657220736F80
:104BB000636B6574206F70656E0D0A005B4D515418
:104BC000545D2053657373696F6E20636F6E6E65FD
:104BD0006374206661696C6564000000C08B000826
:104BE000002804D0024940F24A32FCF7AFB87047BF
:104BF0002C29002401480078704700002800002478
:104C00000D480078082815D2DFE800F00406080AED
:104C10000C0E101209A070470AA070470CA0704734
:104C20000EA0704711A0704713A0704717A07047DF
:104C300019A070471BA070472800002449444C4528
:104C4000000000004E45545F5245414459000000A9
:104C5000544C535F5245414459000000534F434B5D
:104C600045545F4F50454E494E470000534F434B0C
:104C700045545F4F50454E0053455353494F4E5F87
:104C8000434F4E4E454354494E470000434F4E4E0E
:104C90004543544544000000535542534352494252
:104CA00045440000554E4B4E4F574E00072813D237
:104CB000DFE800F00406080A0C0E100007A0704799
:104CC00007A0704708A0704709A070470AA0704766
:104CD0000DA070470FA0704711A070474F4B000008
:104CE0004552524F5200000054494D454F55540013
:104CF0004E4F5F4441544100494E56414C49445F38
:104D0000504152414D0000004E4F545F52454144C6
:104D10005900000050415253455F4552524F5200D6
:104D2000554E4B4E4F574E0070B50400C0B02FD0BB
:104D30004FF480710246684602F0B2FA30A069462C
:104D400001F0A8FC33A001F0B1FF204602F0D0FE34
:104D5000041E20D0012820D0022820D0032C20D0EF
:104D600032A134A001F096FC02F0AAFD010004D0AB
:104D7000087810B136A001F08DFC3CA001F096FF40
:104D8000012C40A20FD0022C0FD0032C0FD00FE02B
:104D9000042040B070BD3CA1E3E73CA1E1E73EA1A7
:104DA000DFE741A1DDE739A202E03BA200E03EA23D
:104DB000404E414D96F8480358B12878062808D34C
:104DC00074B13EA1684600F099FC10B13DA001F01D
:104DD0004FFC3CB10920694601F0A0FC0120D8E756
:104DE00028A1EFE796F8470320B12878062801D3D9
:104DF0000120A8720820694601F090FC0020C8E755
:104E00005B4D5154545D2048616E646C6520434D88
:104E1000443A20005B4D5154545D2052656C6179D9
:104E2000206265666F72653A20000000554E4B4E59
:104E30004F574E005B4D5154545D2050726F746F4C
:104E4000636F6C207374617475733A200000000006
:104E50005B4D5154545D2050726F746F636F6C20C2
:104E600064657461696C3A20000000005B4D515428
:104E7000545D2052656C61792061667465723A20D8
:104E8000000000004F4B00004F4B0000554E4B4EB2
:104E90004F574E5F434D4400494E56414C49445F85
:104EA000504152414D000000455845435F45525224
:104EB0004F5200002C290024280000244552524F54
:104EC000520000005B4D5154545D205075626C6976
:104ED000736820636F6D6D616E642061636B206623
:104EE00061696C65640D0A0070B54FF480742348E5
:104EF0002146FCF706F8650021482946FCF701F831
:104F000020482946FBF7FDFF1F482946FBF7F9FF1C
:104F10001E482946FBF7F5FFA6001D483146FBF762
:104F2000F0FF1C482146FBF7ECFF1B483146FBF71E
:104F3000E8FF1A483146FBF7E4FF19482946FBF71A
:104F4000E0FF184C002518484FF4C061E561258248
:104F5000256225706561A561FBF7D3FFA570E5703B
:104F60002571657001F02EFB02F0AAF801F01CFB20
:104F7000BDE870400D4800F01BB800002C0B002469
:104F80002C1200242C1400242C1600242C1800248D
:104F90002C1A00242C1E00242C1F00242C23002457
:104FA0002C270024280000242C0C00242C29002469
:104FB00010B504004BD040F24A31FBF780FF2021AE
:104FC000204623A202F06CF9602123A204F1200004
:104FD00002F066F942F2B320A4F88000402127A233
:104FE00004F1820002F05CF9402128A204F1C20021
:104FF00002F056F9402127A204F5817002F050F921
:10500000802126A204F5A17002F04AF9802128A28D
:1050100004F5E17002F044F980212AA204F2422052
:1050200002F03EF980212CA204F2C22002F038F9ED
:105030003C22A4F84223012084F8440384F8450369
:10504000002184F8461384F8470384F8480310BD10
:1050500033676E65740000007263313161646331DF
:105060002E616C612E636E2D68616E677A686F7554
:105070002E656D7178736C2E636E000072656C61C5
:10508000795F683734335F3030310000683734334C
:105090000000000031323334353600006465766933
:1050A00063652F72656C61792F636D640000000089
:1050B0006465766963652F72656C61792F737461BD
:1050C000747573006465766963652F72656C6179C8
:1050D0002F61636B000000006465766963652F7261
:1050E000656C61792F6576656E7400002DE9F84F67
:1050F0005FEA00081D4691460E46DDF828A014D050
:105100009EB195B1B9F1000F0FD05FEA0A000CD043
:10511000002030702870404601F0BEFBF0B33A2109
:10512000FBF75FFDD0B3471C03E00420BDE8F88F18
:105130007F1C38782028FBD00928F9D00A2269463C
:105140003846FBF7DDFC009CBC4234D000E0641C18
:1051500020782028FBD00928F9D02C28F7D00A2263
:1051600069462046FBF7CCFC0098A04223D000E023
:10517000401C01782029FBD00929F9D02C29F7D02F
:10518000C9B222290ED02C210746FBF72AFD0100C7
:1051900011D004464B463246384600E00BE001F0A1
:1051A00025FA0BE0401C22210746FBF71AFD0100FF
:1051B00001D04C1CEEE70620B8E7641C20782028BC
:1051C000FBD00928F9D02C28F7D04046FBF754FD36
:1051D00000EB080153462A46204601F007FA00205A
:1051E000A4E70020AFF3008010B594B004461FA0E0
:1051F00001F03EFA6846FFF739FA08B123A01FE034
:105200009DF8000030B19DF8010018B19DF80E0026
:10521000012805D025A001F02BFA052014B010BDFF
:105220002CB1207818B1204602E027A008E02C48D5
:1052300000F080FB0028F8D100F0C8FA20B129A0C6
:1052400001F016FA0120E9E76846FFF70FFA10B1FE
:105250002BA001F00DFA334901200870204901F01C
:105260005DFA31A001F004FA0020D7E70D0A5B4D8A
:105270005154545D2050726570617265206E657482
:10528000776F726B2E2E2E0D0A0000005B4D51546D
:10529000545D204C36313020696E666F206765742E
:1052A000206661696C65640D0A0000005B4D515415
:1052B000545D204E6574776F726B206E6F74207230
:1052C000656164790D0A00005B4D5154545D2053B3
:1052D00065742041504E206661696C65640D0A005A
:1052E0002C2900245B4D5154545D20526571756525
:1052F0007374204950206661696C65640D0A000072
:105300005B4D5154545D20496E666F206361636844
:10531000652072656672657368206661696C656494
:105320000D0A0000280000245B4D5154545D204EAE
:105330006574776F726B2072656164790D0A000085
:105340002DE9F0470500ADF5427D1AD04FF4007409
:1053500002469448214601F0A3FF93482A4621467D
:1053600001F09EFF2878002872D090A12846FBF714
:1053700042FC914C68B18DA0294601F075F828B126
:105380000AE104200DF5427DBDE8F087042020707D
:1053900002E18AA12846FBF72EFC4FF0010658B126
:1053A00086A0294601F060F80028E9D10620207087
:1053B00085490220A6721DE084A12846FBF71BFC4C
:1053C000DFF804A20AF1C00AB8B180A0294601F0B2
:1053D0004BF80028D4D107202070E07BA17B084344
:1053E00005D1A673FCF7CAFF00F2DC50206304204D
:1053F0005146A67201F092F9CEE077A12846FBF75C
:10540000FAFB60B174A0294601F02EF820B375A014
:1054100001F0FCFB5FF0010001F0ACFABCE078A108
:105420002846FBF7E8FB40B1267001F0CBF801F00D
:1054300047FE654962390320DCE774A12846FBF783
:10544000B3FD30B172A12846FBF7D5FB58B905E092
:10545000A6E0607A002887D00020DDE76EA128460C
:10546000FBF7C9FB40B1607A30B16EA001F0CEFB12
:10547000012001F07FFA2EE0284601F00DFA002805
:10548000E9D000208DF804014FF4C0718DF884023A
:1054900080228DF8040041AB28460091A1A9FFF7B6
:1054A00025FE4FF48079C0B166A0294601F0F2F8DC
:1054B00001A94A46284601F005FAB0B101A969A040
:1054C00001F0E8F801A800F073FA00283FF45AAFA1
:1054D0006CA001F0CDF8012054E73A212846FBF7F3
:1054E00080FB10B100F1010804E006204AE700BF8C
:1054F00008F1010898F800002028F9D00928F7D011
:105500000A224046C1A9FBF7FBFAC19F0646474560
:1055100002D1002600E07F1C38782028FBD0092823
:10552000F9D02C28F7D00A223846C1A9FBF7E8FAAF
:105530000146C198B84200D10021304641AB0095E8
:10554000A1AA01F021FFA1A85146FBF72DFD18BB30
:10555000FCF714FF9630A06241A951A001F09AF81F
:1055600001A94C4641A84A4601F0B8FD9DF8040047
:1055700038B901A92246284601F0A4F99DF8040093
:1055800060B101A94DA001F085F801A800F010FA62
:1055900010B13CA001F06CF80020F3E64CA0F9E754
:1055A0000320EFE62C1400242C2700242B4D51540B
:1055B000544F50454E3A0000280000242B4D5154C2
:1055C00054434F4E4E3A0000AE2900242B4D515407
:1055D000545355423A0000002B4D515454505542FB
:1055E0003A0000005B4D5154545D205075626C6967
:1055F000736820726573756C74206572726F7200C7
:105600002B4D515454434C4F53453A004F4B0000DF
:105610004552524F520000002B434D4520455252F7
:105620004F5200005B4D5154545D205075626C69BF
:10563000736820636F6D6D616E64206572726F7246
:10564000000000005B4D5154545D20496E636F6D46
:10565000696E67207061727365206661696C65644C
:105660003A2000005B4D5154545D205061727365C7
:105670006420434D442066616C6C6261636B3A2028
:10568000000000005B4D5154545D205175657565F7
:1056900020434D44206661696C65640D0A0000007A
:1056A0005B4D5154545D2052617720434D4420702E
:1056B00061796C6F61643A20000000005B4D5154C9
:1056C000545D2050617273656420434D443A20005C
:1056D0005B4D5154545D2050617273656420434D9D
:1056E0004420656D7074790D0A000000024A0023A1
:1056F00092F8462300F040B82C29002430B5ADF5CF
:10570000757D14460D4668B165B14FF4C07284A929
:1057100001F083F840222846E4A901F07EF82CB17C
:10572000204604E004200DF5757D30BD0DA04FF43A
:10573000007504A92A4601F070F8FCF71FFEE4AAE0
:1057400084AB04A9CDE90032CDE90210064B29460D
:10575000064A0748FAF7BAFE05490648FFF7C6FFAA
:10576000E1E7000000000000AE290024D48C00080E
:105770002C1800246E2B002410B558B151B10478B8
:1057800044B1074C2478062C06D206A000F070FF26
:10579000052010BD042010BDBDE8104001F0D4BBB1
:1057A000280000245B4D5154545D205075626C6993
:1057B00073682064656E6965643A206E6F74206357
:1057C0006F6E6E65637465640D0A00002DE9F04725
:1057D00023A000F04DFF00F0FFFD30B1264D002466
:1057E000DFF898904FF4806827E025A02FE024B3DD
:1057F000E8B12A4B414655F82420A3F57060FAF72A
:1058000065FE274801F07CFA254800F0A3FC25A09E
:10581000494601F0E9FE060018D0022E1BD024A054
:1058200000F026FF29A000BF01F0F0F93878641CD1
:10583000022CDCD33046BDE8F087194846462A687A
:10584000414601F02DFD154FB046DAE725A000F0E6
:105850000FFF0020EFE72AA000F00AFF2FA0E3E7E8
:105860005B4D5154545D20526571756573742049C8
:10587000502E2E2E0D0A00005C000024F04902007C
:105880005B4D5154545D20495020616C72656164D8
:10589000792072656164790D0A0000002C290024CA
:1058A0002C1A00242B4D495043414C4C3A00000027
:1058B0005B4D5154545D204950207265717565737C
:1058C00074206661696C65640D0A00005B4D51547B
:1058D000545D204D495043414C4C206661696C65D4
:1058E000640000005B4D5154545D204950207265A6
:1058F000717565737420737563636573730D0A0046
:105900005B4D5154545D204950207265717565732B
:10591000742074696D656F75740D0A005B4D515488
:10592000545D204D495043414C4C2074696D656F66
:105930007574000000B595B0E8B10178D9B12021A7
:1059400002460E4801F0ACFC0C4B50210CA26846FC
:10595000FAF7BCFD094911A000F09CFE684601F071
:10596000CFF940F2DC51684600F0E6FB002800D099
:10597000012015B000BD0420FBE700002C29002405
:1059800041542B434744434F4E543D312C22495000
:10599000222C222573220D0A000000005B4D515479
:1059A000545D205365742041504E3A2000000000A1
:1059B00008B100F0BBBE04207047000030B5B3B0A2
:1059C0000C4698B194B1024619484021054601F0B1
:1059D00067FC1748402122464030044601F060FC35
:1059E0001348C23890F8C21019B105E0042033B052
:1059F00030BD90F80201A8B1C8212B460DA2009439
:105A000001A8FAF763FD12A000F032FE01A801F030
:105A100077F901A840F2DC5100F08EFB0028E6D0B7
:105A20000120E4E711A000F023FE0020DFE70000E2
:105A3000EE29002441542B4D515454555345523DA9
:105A4000312C222573222C222573220D0A000000FE
:105A50005B4D5154545D20536574204D5154542076
:105A6000757365722E2E2E0D0A0000005B4D515489
:105A7000545D204D515454207573657220736B69C9
:105A8000707065642028616E6F6E796D6F7573201C
:105A90006D6F6465290D0A00F8B504000AD02078FE
:105AA00040B1194E3078062806D218A000F0E0FD6B
:105AB0000520F8BD0420F8BD25481FA2234600910B
:105AC0004FF48061FAF702FD22A0214600F0E2FDCA
:105AD0001F4801F015F91E4800F03CFB24A04EF6CB
