:020000040800F2
:10000000C0BE0024A503000887C100087B79000852
:10001000D5C00008A93A000899DC000800000000DB
:10002000000000000000000000000000E1CD00081A
:10003000DB3D00080000000089C10008E3CD000896
:10004000C3030008C3030008C3030008C303000878
:10005000C3030008C3030008C3030008C303000868
:10006000C3030008C3030008C3030008D93D000808
:10007000C3030008C3030008C3030008C303000848
:10008000C3030008C3030008C3030008C303000838
:10009000C3030008C3030008C3030008C303000828
:1000A000C3030008C3030008C3030008C303000818
:1000B000C3030008C3030008C3030008C303000808
:1000C000C3030008C3030008C3030008C3030008F8
:1000D000C3030008B5DB0008C1DB0008CDDB000866
:1000E000C3030008C303000800000000C3030008A6
:1000F000C3030008C3030008C3030008C3030008C8
:10010000C3030008C3030008C3030008C3030008B7
:10011000C3030008C3030008C3030008C3030008A7
:10012000C3030008C3030008C3030008C303000897
:10013000C3030008C3030008C3030008C303000887
:1001400000000000000000000000000000000000AF
:10015000C3030008C3030008C3030008D9DB000879
:10016000C3030008C3030008C3030008C303000857
:10017000C3030008C3030008C30300080000000015
:10018000C3030008C3030008C3030008C303000837
:10019000C3030008C3030008C3030008C303000827
:1001A000C3030008C3030008C3030008C303000817
:1001B000C3030008C3030008C3030008C303000807
:1001C000C3030008C3030008C3030008C3030008F7
:1001D000C3030008C3030008C3030008C3030008E7
:1001E000C3030008C3030008C3030008C3030008D7
:1001F000C3030008C3030008C3030008C3030008C7
:10020000C3030008C3030008C3030008C3030008B6
:10021000C3030008C3030008C3030008C3030008A6
:10022000C3030008C3030008C30300080000000064
:10023000C3030008C303000800000000C303000854
:10024000C3030008C3030008C3030008C303000876
:10025000C3030008C3030008C3030008C303000866
:10026000C3030008C3030008C3030008C303000856
:10027000C3030008C3030008C30300080000000014
:10028000C3030008C3030008C30300080000000004
:1002900000000000C303000800F002F800F072F84C
:1002A0000AA090E8000C82448344AAF10107DA45D1
:1002B00001D100F067F8AFF2090EBAE80F0013F0B1
:1002C000010F18BFFB1A43F001031847E03001008B
:1002D00000310100103A24BF78C878C1FAD852071B
:1002E00024BF30C830C144BF04680C6070470000B0
:1002F0000023002400250026103A28BF78C1FBD82F
:10030000520728BF30C148BF0B6070476E2900F00C
:100310009F81702900F06A8266290FF002856929A1
:1003200000F05A81642900F05781752900F054814A
:100330006F2900F0FF81782900F04B820368DB0908
:1003400028BF41F08001632901F01181732901F078
:100350001681E32901F02181002070471FB50FF0BD
:10036000DBFC01F01BFA0400002000210FF0A8FCC8
:10037000401C6060002000210FF0B8FCE0601FBD51
:1003800010B510BD01F0C8FC1146FFF7E7FF0EF0F5
:10039000A2FF01F0E6FC03B4FFF7F2FF03BC01F09B
:1003A000E9FC00000A4880470A4880470A4800479D
:1003B000FEE7FEE7FEE7FEE7FEE7FEE7FEE7FEE715
:1003C000FEE7FEE705480649064A074B704700006E
:1003D000E13D000889CE000899020008C0AC002465
:1003E000C0BE0024C0AE0024C0AE002453EA020CFC
:1003F00000F069802DE9F04B4FF00006002B1FBF85
:10040000B3FA83F503FA05F424FA05F65E4012BF49
:100410001643B2FA82F502FA05F4C5F120051EBFB3
:1004200022FA05FC44EA0C04203556EA044C4FEA53
:10043000144418BF641C4FF000084FF000099042AC
:1004400071EB030C39D3002919BFB1FA81F701FA16
:1004500007F6B0FA80F700FA07F6C7F120071EBFCB
:1004600020FA07FC46EA0C062037B6FBF4FCA7EBA3
:100470000507103F07F01F0BCBF120060CFA0BFB12
:100480002CFA06F644BFB3460026202FA4BF5E46D2
:100490004FF0000B5BEA060C08BF4FF0010B19EBA5
:1004A0000B09ABFB027C48EB0608C01B06FB02CC29
:1004B0000BFB03CC71EB0C01C1E70B460246414636
:1004C0004846BDE8F08B13B54FF000004FF0000137
:1004D000AFF30080BDE81C40704700000FB47CB54E
:1004E0000C0009AA009001D02044401E084B7B4418
:1004F00069460190089801F010F805461CB10020EB
:10050000694601F01DF828467CBC5DF814FB00002C
:100510005910000070B5044685690068C10601D510
:10052000302600E02026C00707D070BDD4E90121A5
:1005300030469047206A401C20626D1EF6D570BD83
:1005400070B5044685690078C00707D170BDD4E94D
:10055000012120209047206A401C20626D1EF6D5A4
:1005600070BD09684A0501D540B27047C905FCD580
:1005700000B2704709684A0501D5C0B27047C90585
:10058000FCD580B2704770B50C460546012A05D0EF
:100590002878800600D5EA69002302E0012305E0FF
:1005A0005B1C934202D2E05C0028F9D1A869E618EE
:1005B000C01AA861286A184428622846FFF7AAFFD3
:1005C00004E0D5E9012114F8010B9047B442F8D3B7
:1005D0002846FFF7B5FF70BD2DE9F041064600241F
:1005E00010687529314616A510D0FFF7BAFF00280C
:1005F00002DA404213A507E031688A0701D512A547
:1006000002E0490704D511A5012401E0FFF7B2FF7C
:1006100000210A2206F1240709E0B0FBF2FCB0FB3E
:10062000F2F302FB1C00303078541846491C0028B5
:10063000F3D123462A463046BDE8F04100F000BD24
:10064000000000002D0000002B0000002000000032
:1006500011680268006A530501D508700AE0D305E5
:1006600001D5088006E0130603D5C217C1E90002D0
:1006700000E00860012070472DE9FF5F15468A46BB
:100680000446DFF8AC80F8440027D8E900103E4665
:10069000CDE9001010E03AF816106A4602A801F001
:1006A0001CF8411C07D02178890603D5E269391866
:1006B00091420DD80744761C2078800602D5E06967
:1006C000B84205DDAE42E6DB3AF816000028E2D17A
:1006D000A069C01BA0612046FFF71CFFD8E90010ED
:1006E000CDE90010002017E03AF818106A4602A879
:1006F00000F0F3FFB0F1FF3F81460BD000250DF174
:10070000080B05E0D4E901211BF8050090476D1C9A
:100710004D45F7D308F10100B0428046E4DB206A82
:10072000384420622046FFF70BFFBDE8FF9F000022
:10073000A226010070B5044621461068FFF71AFF93
:10074000002104F1240505E000F007023032C00862
:100750006A54491C0028F7D12068002307A2050726
:1007600007D5800600D421B1E069012304A2401E10
:10077000E0612046BDE8704000F062BC000000006F
:1007800030000000F0B40D460188090502D51B4C6D
:100790007C4402E0194C7C440E34002100F1240317
:1007A00005E002F00F061209A65D5E54491C002AFE
:1007B000F7D102780023120704D5702D06D009B1B5
:1007C000022311342246F0BC00F03ABC012310345D
:1007D000F8E770B504460D4621461068FFF7CAFEDB
:1007E000024629462046BDE87040CBE70368126800
:1007F00043F0200303600823C361C3E7A025010081
:100800002DE9F05F894604464FF0000ADFF874B125
:10081000FB44C0F820A02046E1688847002874D037
:10082000252806D0D4E901219047206A401C206287
:10083000F1E700265F462046E16888472028054604
:1008400007DB312D05D2781910F8200C08B10643CA
:10085000F1E7B00701D526F00406C4F81CA0002774
:10086000C4F818A02A2D09D028460DF0B0FD38B3E1
:1008700004EB8708303DC8F8185019E059F8041BFC
:10088000204604EB87029161E1688847012F054605
:1008900018D1E069002820DA26F020061DE0D8F8FB
:1008A000180000EB800005EB40003038C8F8180055
:1008B0002046E168884705460DF089FD0028EED105
:1008C000012F0AD02E2D08D12046E16888477F1CD1
:1008D0000546022F46F02006C4DBA069002803DA93
:1008E000404246F00106A061F00701D026F0100654
:1008F0006C2D0BD0682D09D04C2D39D06A2D35D0F8
:10090000742D35D07A2D33D016E038E0E1682F46CB
:1009100020468847B842054609D16C2F26D04FF4AF
:100920008060E168064320468847054604E06C2F56
:100930001AD04FF4807006430DB3A5F14100192879
:1009400002D8203546F400664A46294620462660ED
:100950004E46FFF7DBFC80B101280BD0F61D26F0D8
:10096000070000F1080956E74020E4E78020D8E7B7
:100970000020D6E706F104094DE7284652E7206A31
:10098000BDE8F09F482501000FB400B58DB010A957
:10099000099000910B904FF0FF300A9000200C90CE
:1009A000064878440690064878446A4607900F99AE
:1009B00009A800F013FE0DB05DF814FB570C000001
:1009C0006F0C00002DE9FF5F1D464FF0FF3B914685
:1009D0004FF000085F46D5E90146A96901987F1CE0
:1009E0008847296A824688470028F6D1BAF1FF3F36
:1009F0000CD0002E24F4C06419DD600614D5BAF1C1
:100A00002B0F09D0BAF12D0F0ED103E0584604B0D8
:100A1000BDE8F09F44F48064A96901987F1C884771
:100A2000761E8246002E02DDBAF1300F03D0B9F1F6
:100A3000000F26D032E0A969761E01987F1C44F48D
:100A400000748847002E824605DDBAF1780F06D083
:100A5000BAF1580F03D0B9F1000F10D01EE0B9F170
:100A6000000F02D0B9F1100F18D1A969761E0198B4
:100A70007F1C24F4007488478246102002E008207E
:100A800000E00A20814609E0A96908FB0908761EF2
:100A900001987F1C44F4007488478246002E05DDCF
:100AA0004946504600F085FD0028EDDAE9690198D5
:100AB0008847A00502D46FF00100A8E7E00725D120
:100AC000600613D5600502D5C8F1000000E040467D
:100AD00029680A1D2A600968220501D5087015E0F9
:100AE000220701D5088011E008600FE02868011D89
:100AF00029600068210502D580F8008006E0210702
:100B000002D5A0F8008001E0C0F8008038467EE7FA
:100B10002DE9F04791460F4680460446002614F81A
:100B2000015B2DB100F080FA0068405DC007F6D18E
:100B30002B2D02D02D2D18D0641E4A463946204652
:100B400000F07CFD27B13968A14201D1C7F80080CF
:100B50004FF0020471050BD54042002803DD00F080
:100B60006BFA0460A007BDE8F08746F48066E4E70E
:100B70000028F8DA00F060FA04606FF00040F2E755
:100B80002DE9F05F93460F4680460446002600F0AC
:100B900053FAD0F80090824614F8015B2DB100F0B2
:100BA00043FA0068405DC007F6D12B2D02D02D2DF1
:100BB0001AD0641E0021CAF800105A463946204651
:100BC00000F03CFD014627B13868A04201D1C7F8CA
:100BD0000080DAF80000022809D0CAF800907005F9
:100BE00005D54842BDE8F09F46F48066E2E7084636
:100BF000F8E7401ECAB210F8011F8A4202D000294D
:100C0000F9D10020704730B505460B462A4613F847
:100C1000014B12F8010B08B1A042F8D01CB100281A
:100C200002D06D1CF1E7284630BD40EA01030246C0
:100C300030B59B0710D14FF0013400E008C208C95D
:100C40001D1B9D4315EAC41FF8D013F0FF0102F8E5
:100C5000011B0DD01B0AF8E711F8013B002B02F82D
:100C6000013B05D011F8013B002B02F8013BF3D109
:100C700030BD0022CBB210F8011B994200D1421EB8
:100C80000029F8D11046704710B5431C02E010F857
:100C9000011B71B18107FAD14FF0013202C88C1AE1
:100CA0008C4314EAC211F9D0C01A0A0603D0C01E40
:100CB00010BDC01A10BD0A0401D0801E10BD09026B
:100CC000FCD0401E10BD40EA010370B59B072ED139
:100CD0004FF00136042A2AD308C810C99D1B9D4332
:100CE000121F15EAC61517D0D8B2E1B2401A50EA61
:100CF000056110D198B2A1B2401A50EA05410AD15B
:100D000023F07F4024F07F41401A50EA052102D1B0
:100D1000180EA0EB146070BDA342DBD018BA21BA44
:100D2000884201D9012070BD4FF0FF3070BD0AB973
:100D3000002070BD10F8013B11F8014B63B1A342D4
:100D40000AD1521E08D010F8013B11F8014B1BB11B
:100D5000A34201D1521EEDD1181B70BD032A40F2EF
:100D6000308010F0030C00F0158011F8013BBCF14D
:100D7000020F624498BF11F801CB00F8013B38BF65
:100D800011F8013BA2F1040298BF00F801CB38BF73
:100D900000F8013B11F0030300F06780083AC0F04F
:100DA000088051F8043B083A51F804CBA0E8081039
:100DB000F5E7121D5CBF51F8043B40F8043BAFF36C
:100DC0000080D20724BF11F8013B11F801CB48BFC6
:100DD00011F8012B24BF00F8013B00F801CB48BFFC
:100DE00000F8012B7047431A28BF9A427FF6B6AF2E
:100DF000032A1044114440F2268010F0030F1EBF56
:100E000011F8013D521E00F8013D10F0030F7FF470
:100E1000F6AF11F0030300F09384083AC0F00B80A2
:100E200051F8043D083A51F804CD40F8043D40F82B
:100E300004CDFFF7F3BF121D5CBF51F8043D40F82D
:100E4000043DAFF30080D20724BF11F8013D11F833
:100E500001CD48BF11F8012C24BF00F8013D00F876
:100E600001CD48BF00F8012C704710B5203AC0F002
:100E70000B80B1E81850203AA0E81850B1E818509B
:100E8000A0E81850BFF4F5AF5FEA027C24BFB1E8D8
:100E90001850A0E8185044BF18C918C0BDE8104049
:100EA0005FEA827C24BF51F8043B40F8043B08BF52
:100EB0007047D20728BF31F8023B48BF11F8012B19
:100EC00028BF20F8023B48BF00F8012B70474FF0C5
:100ED00000020429C0F0128010F0030C00F01B8007
:100EE000CCF1040CBCF1020F18BF00F8012BA8BF15
:100EF00020F8022BA1EB0C0100F00DB85FEAC17CD9
:100F000024BF00F8012B00F8012B48BF00F8012B8B
:100F100070474FF0000200B51346944696462039BC
:100F200022BFA0E80C50A0E80C50B1F12001BFF4A2
:100F3000F7AF090728BFA0E80C5048BF0CC05DF808
:100F400004EB890028BF40F8042B08BF704748BF56
:100F500020F8022B11F0804F18BF00F8012B7047CA
:100F600010B5044610F0030F08BF11F0030F40F056
:100F700015804FF0013E121FC0F20E8051F8043B65
:100F8000A3EB0E0C2CEA030C1CEACE1C08BF40F8A5
:100F9000043BF0D0A1F1040102F10402521E08DB6F
:100FA00011F8013B002B00F8013BF7D11146FFF788
:100FB0008EFF204610BD00004FF0013C50F8042B7E
:100FC00051F8043B9A4215D1A2EB0C03934313EA68
:100FD000CC130BD150F8042B51F8043B9A4209D1A1
:100FE000A2EB0C03934313EACC13E7D04FF00000BD
:100FF000704700BFD01A01BAB1FA81F101F01801AF
:1010000022FA01F0CB40C1F12001DBB2C0B2C01A1C
:101010002CFA01F3D11A914311EAC311E6D17047BA
:10102000704770477047000010B500F0B7FB001D17
:1010300010BD00BF8DEC0000004870475CAC002480
:101040002DE9F0470D4699469246044600F12408E2
:101050000168880604D5E06921F01001216000E0F4
:101060000120A84201DD471B00E00027A1697A1991
:1010700002EB0900081AA0612078C00602D42046BD
:10108000FFF748FA002608E0D4E901211AF8060023
:101090009047206A401C761C20624E45F4DB207885
:1010A000C0060AD52046FFF735FA06E0D4E901214B
:1010B00030209047206A401C2062381EA7F10107AB
:1010C000F4DC07E0D4E9012118F805009047206A14
:1010D000401C2062281EA5F10105F3DC2046FFF725
:1010E0002FFA2078000602D50220BDE8F087012003
:1010F000FBE770472DE9FF4F0C461E464FF0FF37C8
:101100008BB0D2E90001DDF860800A908A46C1F315
:101110000A5505B93D46002108464FF00000BAF1D6
:10112000000F00F4400005DA00EB80004FF44001AE
:1011300001EA50004FEA9059B9F1010F00DDB946BC
:101140000A9850EA4A000ED044F61050A5F2FF3536
:1011500045432F14B8F1000F1ED07542291E1EDD25
:10116000C9F100021CE0B8F1010F4FF0000001D0FE
:10117000302103E0F24305E02154401CB042FBDB88
:1011800030460022002121540B99C1F80880C1E9A2
:1011900000200FB0BDE8F08FBD1B6D1CDEE74A4696
:1011A00000DA694206A800F045FD06AB93E80700A7
:1011B00003AB83E8070050460A9900F0E2FD8DE892
:1011C0000700A0F500501F3800900398002D0ADD9D
:1011D00042F21F014A460844002303A903906846CF
:1011E00001F04BF809E0A0F500504A461F380023F3
:1011F00003A90390684601F055F88DE80700000444
:10120000000C03D04FF0FF30410800E01046B8F169
:10121000000F03D00022009215461EE0751E05D473
:1012200000F0C0FA303262556D1EF9D5B346012286
:10123000084302D000227F1C04E02078302801D12E
:1012400000227F1E002A099784D01DE0112D07DAA5
:1012500000F0A8FA303262556D1C50EA0102F5D157
:10126000084302D00098C8B10EE00021681E05E0D6
:10127000235C625C63542254401E491C8142F7DBAC
:10128000AB46A81B401E0990002004F80B000B98E9
:10129000099AC0F80880C0E9002B7AE711264FF0C0
:1012A000000857E72DE9F04F88460446D21D22F08A
:1012B000070191B0D1E90001CDE90A010DF05EF816
:1012C00002460B98C00F01D02D2007E0206881074F
:1012D00001D52B2002E0202101EAC000032A099059
:1012E00001D0072A05DB03464146204600F0A8FA54
:1012F0000BE12078800601D5E06900E00620B8F116
:10130000650F814606D0B8F1660F18D0B8F1670FA7
:1013100070D131E00020B9F1110F009001DB1123F1
:1013200001E009F101030AAA01A90CA8FFF7E2FEF6
:10133000DDE90C70002609F10105834647E0012034
:101340004B4600904FF000470AAA01A90CA8FFF7EE
:10135000D1FEDDE90DB00C995D46002610B909F10A
:1013600001000D18B9EB050003D4C0F1FF3609F1F7
:101370000105A5EB09002BE0B9F1010F01DA4FF0EF
:1013800001090020B9F1110F0090484601DD112339
:1013900000E003460AAA01A90CA8FFF7ABFEDDE9AD
:1013A0000C704D4600268346207800070AD4AB45D2
:1013B00000DA5D4601A8012D04DD411911F8011C78
:1013C000302907D04F4502DA17F1040F04DA012063
:1013D00082460FE06D1EEEE7002F02DCED1B3E445F
:1013E00003E0781CA84200DD7D1CB81B00F1010A57
:1013F0004FF000472078000703D4AA4501DB4FF0E7
:10140000FF3A0021B7F1004F0DF143088DF843106A
:1014100024D002202B23002F01DA7F422D230A2122
:10142000021EA0F1010000DC5FB197FBF1FC97FB0D
:10143000F1F201FB1C7C17460CF1300C08F801CDD1
:10144000EEE7A8F1010003702188090501D54521C7
:1014500000E06521A0F1010800F8011C09980FA91E
:10146000A1EB0807FF1D00B10120411901EBEA7053
:10147000A1693844081A401EA0612078C00602D431
:101480002046FFF747F8099828B1D4E90121904791
:10149000206A401C20622078C00622D52046FFF733
:1014A00039F81EE0002E04DBB34502DD01A8805DA3
:1014B00000E03020D4E901219047206A401C2062DE
:1014C000761CAAF101005FEA000A0AD100F066F971
:1014D000C0680168405CD4E901219047206A401C43
:1014E0002062281EA5F10105DCDC07E0D4E901211A
:1014F00018F8010B9047206A401C2062381EA7F1A3
:101500000107F3DC2046FFF71BF8032011B041E68A
:1015100001694A1C02610878704700B58FB0CDE9B7
:1015200001310021059105497944CDE903101146A7
:101530006846FFF765F90FB000BD0000E5FFFFFF4B
:101540000A6802F8010B0A607047D1E900239A4249
:1015500002D2531C0B601070704710B5436913B171
:10156000AFF3008001E0FFF70EF8012010BD127804
:1015700000F124010A7000224A700122EDE711688F
:101580004FF0FF32E9E710B5436913B1AFF30080C4
:1015900001E0FFF771F8012010BD128800F124016D
:1015A00082840022C2840122EDE711684FF0FF32ED
:1015B000E9E73A2800D2303820F02002412A01D34E
:1015C000A2F13700884201D34FF0FF30704700008E
:1015D000026811441378016018467047D1600549CC
:1015E0007944516104497944116200211161114625
:1015F00000F066B9EDFFFFFF45020000426842B10E
:10160000016811F8013B23B1521EC0E900121846CF
:1016100070470121C160881E704742685AB1C36893
:10162000016843B983688B4205D0491E521CC0E94A
:101630000012002070474FF0FF3070472DE9F05F37
:10164000824615468B4600270AF10104B946007808
:10165000302801D09DB113E014F8010B0127782840
:1016600003D0582801D045B10AE00DB1102D07D1A3
:10167000002714F8010B102502E0082500E00A25D8
:101680000026B0460EE005FB080005FB06F1012729
:101690001FFA80F801EB1046B6F5803F00D3B9463B
:1016A00014F8010B2946FFF784FF0028EBDABBF1A1
:1016B000000F05D00FB1641E00E05446CBF8004087
:1016C000B9F1000F06D0FFF7B7FC02210160C81E78
:1016D000BDE8F09F48EA0640FAE770B516460C46AA
:1016E0000546FFF7A1FC036893F80101012806D025
:1016F000FF2C0FD8185D68B101202C7070BDD3F895
:1017000007013246214603F2071303442846BDE889
:10171000704018474FF0FF3070BD431A28BF9A42FF
:101720007FF6A3AB104410F0030F11441EBF11F855
:10173000013D521E00F8013D10F0030F7FF4F6AF9B
:10174000103AC0F00A8010B531E91850103A20E97B
:101750001850BFF4F9AFBDE81040530724BF31E97A
:10176000081020E9081044BF51F8043D40F8043D3A
:1017700012F0030F08BF7047D20728BF31F8023DAF
:1017800048BF11F8012C28BF20F8023D48BF00F8DF
:10179000012C7047004870475CAC0024004870473B
:1017A0007CAC002430B5B0F10A024FEA900E71F122
:1017B00000034EEA817EB0EB0E0061EB91014FEA2F
:1017C000101E4EEA017E10EB0E0041EB11114FEAA4
:1017D000102E4EEA016E10EB0E0041EB11214FEA84
:1017E000104E4EEA014E10EB0E0041EB1141401835
:1017F00041F100014FEAD00040EA41704FEAD101C7
:1018000010EB80054FEA810444EA907444EB010434
:101810006D1944EB0404521BA3414FF0000348BF71
:101820000A3200D530BD401C41F1000130BD10B579
:101830000446FFF7F9FB0068005D00F0010010BDF1
:101840002DE9F0411F46044603260168072A01F4EA
:10185000006004DB08B116A505E016A503E008B199
:1018600015A500E015A521F010002060A069C01E9C
:10187000A0610FB1401EA0612046FEF74BFE4FB1A4
:10188000D4E9012138469047206A401C2062C01CE0
:10189000206206E0206AFAE7D4E9012115F8010B7D
:1018A0009047761EF8D22046FEF74AFEBDE8F0814A
:1018B0004E414E006E616E00494E4600696E6600F4
:1018C0002DE9F34F4FF0000A0C4656468DB001202B
:1018D0000C9001F10C000B9062690B98012190476C
:1018E000051E2DD0252D2CD0216A8847C0B16269F4
:1018F0000B9801219047216A88470028F7D1626937
:10190000411E0B98904700E0761CA1690D9888470E
:10191000216A88470028F7D1E1690D988847DBE7FD
:10192000A1690D988847A842074601D1761CD3E7E4
:10193000E1690D9888477F1C02D1BAF1000F6FD082
:101940006CE162690B9800273D46394690472A288A
:1019500004D162690B98012190470125DFF8D082FC
:1019600062690B9801219047A0F130010A290AD23F
:101970004745E5DC07EB870100EB4107303FDFD44B
:1019800045F01005ECE7E90601D46FF000476C283C
:101990000AD04C2814D0682815D06A280DD0742895
:1019A0001CD07A281AD01DE062690B98012190475B
:1019B0006C2802D045F0040514E045F002050DE066
:1019C00045F020050AE062690B98012190476828DC
:1019D00002D045F0080505E045F4006562690B9802
:1019E00001219047C4E9015765283DD019DC5828EA
:1019F0007AD00CDC452837D004DC252826D04128B5
:101A00009ED131E046282FD0472899D12CE05B2881
:101A100077D0612828D063287CD0642823D15AE06D
:101A2000F7E06F2848D008DC66281DD067281BD057
:101A3000692821D06E2816D127E0702845D0732858
:101A400068D0752847D078280DD14DE0A1690D9850
:101A50008847252805463FF469AFE1690D98884716
:101A60006D1C3FF46AAFD9E00D9923466A466FF0CA
:101A70000100AFF30080C6E045F0400023464FF080
:101A800000026060A80736D43EE0E8077FF447AF65
:101A90002068011D21600068290501D506701BE73B
:101AA000290701D5068017E7A90703D5F117C0E973
:101AB000006111E706600FE745F0400023464FF054
:101AC00008026060A80716D41EE040F60E0125EA61
:101AD0000100606016E045F0400023464FF00A0226
:101AE0006060A80707D40FE045F040006060A807D9
:101AF00008D5234610220D996FF00100AFF3008046
:101B000081E007E0102223460D996FF00100FEF7F7
:101B100059FF78E04FF0000963284F46C8464B460E
:101B2000CB4602D05B2807D039E02079C00601D42B
:101B30000120A060012732E06269D4F80CB00B9854
:101B4000012190475E2807D14FF00109494662699B
:101B5000D4F80CB00B989047216939B900210A4696
:101B600003AB43F82120491C0829FADBD8B32169CB
:101B700049B308F1010862690B98012190475D287B
:101B8000F4D1B9F1000F09D0002003A951F82020A9
:101B9000D24341F82020401C0828F7DB03AB206922
:101BA000002820794FEA40701ED05B462246CDF8CF
:101BB0000080CDE901970D9900286FF0010020DA2F
:101BC000AFF300801FE0C11703AA00EBD1614B11F6
:101BD00021F01F0102EB8302411A136801208840A3
:101BE00003431360C7E719E00D99224600286FF000
:101BF0000100009702DAAFF3008004E0AFF3008049
:101C000001E0AFF3008000280ADA401C06D10C98EE
:101C100020B14FF0FF300FB0BDE8F08F5046FAE72B
:101C2000E90701D10AF1010A064400200C9053E6AD
:101C3000CCCCCC0C2DE9F047814616468AB035480D
:101C400078440DC88DE80D0032487844801C03AC00
:101C50000DC884E80D0041F69B300844372190FB05
:101C6000F1F290FBF1F5A5F1800501FB12041B3C9C
:101C700002D56442012000E00020DFF898A08046F1
:101C80000027FA44AAF1BE0A0EE0E0070AD0324665
:101C9000684607EB470101230AEB810100F002FBD4
:101CA0008DE8070064107F1C002CEED1194F7F4493
:101CB000AE3F19E0E80715D007EB04100DF1180A44
:101CC00090E80E008AE80E00C068F04201D1981931
:101CD00008903246012306A903A800F0E3FA03ABFB
:101CE00083E807006D10641C002DE3D14FF0010361
:101CF00032466946B8F1000F03A802D000F0BDFAE1
:101D000001E000F0CFFAC9E90001C9F808200AB0E3
:101D1000BDE8F087A81101007546FFF73BFDAE4610
:101D200005006946534620F00700854618B020B5E7
:101D3000FEF748FBBDE820404FF000064FF00007DB
:101D40004FF000084FF0000B21F00701AC46ACE863
:101D5000C009ACE8C009ACE8C009ACE8C0098D46D0
:101D6000704710B50446AFF300802046BDE8104030
:101D7000FEF711BB01491820ABBEFEE726000200AA
:101D800070475FEA400C08BF91F0000F4FEA8C23C8
:101D90004FEAC12243EA51514FEA1C5018BF00F5E7
:101DA000F0404FEA300018BF41F000415FEA6C5C40
:101DB00000F02980BCF1FF3F08BF40F08040704731
:101DC000130C06BF12044FF0100C4FF0000C130E52
:101DD00004BF12020CF1080C130F04BF12010CF126
:101DE000040C930F04BF92000CF1020CD30F04BF3C
:101DF00052000CF1010C11464FF00002A0F11F003F
:101E0000A0EB0C00704711F0004F08BF704731F095
:101E100000413FF4D5AF0B0C06BF09044FF0100C86
:101E20004FF0000C0B0E04BF09020CF1080C0B0F55
:101E300004BF09010CF1040C8B0F04BF89000CF1E5
:101E4000020CCB0F04BF49000CF1010CCCF12003B4
:101E5000A0EB0C0022FA03F302FA0CF241EA0301B0
:101E600000F10100704720F07F4C80EA030023F06E
:101E70007F47ACEB070303F57C5300F0004003F110
:101E8000FF032DE980494FEA154B09B44FEA14438B
:101E900025EA0B4E24EA03480FF2042606EB13272B
:101EA00049083E785FEA320203FB0667C7F5000780
:101EB00007FB06F64FEA54374FEAD64606F102060C
:101EC00007FB066CCCF1005C4FEA1C472CEA074C80
:101ED00007FB06F40CFB06F504EB15464FEA9616D5
:101EE00034BF00204FF000404FEAD13706FB07FC1B
:101EF0004FEA1C4C0CFB0BF7D21B03FB0CF761EBFE
:101F000007010CFB0EF7B0EB074072EB17420CFB1E
:101F100008F734BFA2EB0742B2EB074261EB17416F
:101F20004FEA0C444FEA910706FB07FC4FEA1C4CB2
:101F30000CFB0BF7B0EBC74072EB573203FB0CF70F
:101F400034BFA2EBC742B2EBC74261EB57310CFB87
:101F50000EF7B0EBC70072EB57720CFB08F734BFFB
:101F6000A2EBC702B2EBC70261EB5771039F4FEAC6
:101F7000816141EA921104EBCC044FEAD1374FEA78
:101F8000826206FB07FC42EA90124FEA80604FEA49
:101F90001C4C0CFB0BF7D21B03FB0CF761EB07018E
:101FA0000CFB0EF7B0EB074072EB17420CFB08F787
:101FB00034BFA2EB0742B2EB074261EB17414FEA95
:101FC0008C554FEA910704EB9C2406FB07FC4FEA73
:101FD0001C4C0CFB0BF7B0EBC74072EB573203FB0A
:101FE0000CF734BFA2EBC742B2EBC74261EB5731EB
:101FF0000CFB0EF7B0EBC70072EB57720CFB08F747
:1020000034BFA2EBC702B2EBC70261EB577115EB0D
:102010004C254FEA816141EA92114FEA82624FEA10
:10202000D13742EA901206FB07FC44F100044FEA64
:1020300080604FEA1C4C0CFB0BF7D21B03FB0CF728
:1020400061EB07010CFB0EF7B0EB074072EB174298
:102050000CFB08F734BFA2EB0742B2EB074261EB7F
:10206000174115EB1C154FEA813141EA92414FEAC5
:10207000823242EA90424FEA80304FEA0C7644F1D5
:10208000000448EA03434EEA0B484FF0000EB2EB5F
:10209000080C71EB030724BF624639464EEB0E0E67
:1020A0004FF0000B0018524149414BEB0B0BB2EBC8
:1020B000080C71EB03077BF1000B24BF6246394625
:1020C0004EEB0E0E4FF0000B0018524149414BEB06
:1020D0000B0BB2EB080C71EB03077BF1000B24BF79
:1020E000624639464EEB0E0E51EA020718BF46F023
:1020F000010616EB0E7655F1000254F1000103D5EE
:10210000BDE88901BDE80088BDE88901BDE8004857
:10211000B619524141EB0101A3F1010370478080E0
:102120007F7E7D7C7B7A7978777676757473727131
:1021300071706F6E6E6D6C6C6B6A6A6968686766E9
:1021400066656464636362616160605F5F5E5E5D7B
:102150005D5C5C5B5B5A5A595958585757565655EF
:1021600055555454535352525251515050504F4F51
:102170004F4E4E4D4D4D4C4C4C4B4B4B4A4A4A49A1
:1021800049494848484747474746464645454544E4
:102190004444444343434342424242414141002B71
:1021A0009C4630D477002BD01CB54FEA370703B4D8
:1021B0004FF010004FF01001BAF1000F06D0BCF143
:1021C000000FDCBF40F0080040F008014FF00000B5
:1021D0000FBCBDE810400BF1010BBBF1010F08BFB4
:1021E0005FEA170722BF12F1010211F101014FF05E
:1021F000004143F1000300F0004043EA0000704753
:10220000F9D35708D0E746EA064613F1400F4FEAE4
:1022100016461FDD13F1200FDFBF16430A460021CB
:1022200020335B42BED0C3F1200746EA064602FADD
:1022300007F74FEA164646EA0706C3F1200722FAD7
:1022400003F201FA07F721FA03F14FF0000342EA23
:102250000702A7E746EA020646EA06464FEA16469E
:1022600046EA0106BCBF46EA0646360C4FF00003BC
:102270004FF000024FF0000194E72DE9804C9A46A0
:10228000934670B491E8380007C831EA400C48BF63
:1022900034EA430C03D5FFF7E6FDFFF780FFF0BCFF
:1022A000BDE8008C2DE9804C9A46934670B491E8C5
:1022B000380007C810F0804F08BF13F0804F03D1DB
:1022C00000F005F8FFF76BFFF0BCBDE8008C20F0D4
:1022D0007F4780EA030023F07F4C07EB0C03A3F554
:1022E0007C5300F00040A3F1FE0392F0000F00F0D9
:1022F000B38095F0000F00F077802DE901494FEA97
:1023000011404FEA144621EA004800FB06FC24EA8B
:10231000064708FB06F607FB08F800FB07F718EB73
:1023200006484CEB164C4FEA124B18EB07484FEAA5
:1023300015464CEB174022EA0B4E0BFB06FC25EA38
:1023400006470EFB06F607FB0EFE0BFB07F71EEB20
:10235000064E4CEB164C4FF000061EEB074E4CEBB6
:10236000174B18EB0B0840F1000018EB0E0B58EB65
:10237000000840F100008F1A4FF000013CBFC94334
:10238000661B14BFB5EB040C00213CBFC943F61B10
:102390004FEA17444EEA8E0E27EA04454FEA1C47DF
:1023A00004FB07622CEA074C05FB07F70CFB05F65C
:1023B00004FB0CFC16EB074642EB174216EB0C46EF
:1023C00042EB1C421BEB060658EB0202414146EA77
:1023D0009E0601D5BDE80189B619524141EB0101C4
:1023E000A3F10103BDE801894FEA14454FEA114703
:1023F00024EA054621EA074C05FB07F406FB07F72C
:102400000CFB06F105FB0CFC11EB074144EB1744F8
:102410004FEA124711EB0C4144EB1C4422EA074CF3
:1024200005FB07F206FB07F70CFB06F605FB0CFCA9
:1024300016EB074642EB174216EB0C4642EB1C45E7
:102440006A1854F1000148BF7047B619524141EB78
:102450000101A3F10103704795F0000F37D04FEA57
:1024600011424FEA144721EA024624EA074C02FBD4
:1024700007F106FB07F70CFB06F402FB0CFC14EB60
:10248000074441EB17414FEA154714EB0C4441EB6D
:102490001C4125EA074C02FB07F506FB07F70CFB7E
:1024A00006F602FB0CFC16EB074645EB174516EB50
:1024B0000C4645EB1C42121951F1000148BF704710
:1024C000B619524141EB0101A3F1010370474FEAF4
:1024D00014454FEA114724EA054621EA074C05FB5B
:1024E00007F106FB07F70CFB06F24FF0000605FBB1
:1024F0000CFC12EB074241EB174112EB0C4251EB83
:102500001C4148BF7047921841EB0101A3F1010340
:102510007047000070B53A4905460068884202D00D
:10252000384A904202D1D1F8080302E03648D0F888
:10253000080310F4403F11D004F006F9044668681F
:10254000B0F5803F06D0B0F5003F03D0B0F5403F76
:1025500027D101E0000C18E0A40822E000214FF48C
:10256000002003F089F9044668688103890B18D1BB
:1025700081140C2915D2DFE801F0140606060606C0
:10258000060B0D0F1113800C4000B4FBF0F408E0B3
:10259000240906E0640904E0A40902E0E40900E07B
:1025A000240A02F047FE41F20301884208D8174886
:1025B00084422868816813D821F48071816070BDDD
:1025C00013496008884204D82868816821F4407162
:1025D000F4E71049884206D82868816821F44071E0
:1025E00041F48071EAE70C4988422868816804D880
:1025F00021F4407141F40071E0E741F44071DDE7FE
:10260000002002400021024000600258002D3101EC
:10261000105E5F0020BCBE0040787D012DE9F041D6
:102620000027044600680D4607F016FE064620689F
:1026300007F00EFE30435DD020682F4EC16889013F
:1026400005D5617D012902D1217D01290BD0022D03
:102650001DD0206807F000FEB8B120688168C1F382
:10266000400169B111E02549012502E08F4232D2D3
:102670007F1C0268D2435206F8D440210160E8E78B
:102680008168314041F010018160012D11D0206836
:1026900007F0DEFD48B120688168C1F3400121B92F
:1026A0008168314041F020018160022D08D0032D66
:1026B00004D0042502F0C4FD064617E00C25F9E716
:1026C0000825F7E702F0BCFD801B05280ED920681D
:1026D000806828420AD0606D40F010006065A06DEF
:1026E00040F00100A0650120BDE8F081206880680D
:1026F0002842E7D10020F7E7C0FFFF7F00DC0C0095
:1027000070B50446006881688268C1F3400112F028
:10271000010F28D039BB816801F00D01012914D1C6
:102720008168124A1140891C816021680320086079
:1027300002F086FD054612E002F082FD401B0228F1
:102740000DD920688068C00709D0606D40F0100086
:102750006065A06D40F00100A065012070BD20689B
:102760008068C007E8D1002070BD0000C0FFFF7F77
:1027700070B504460068816811F0010F40D181688E
:10278000204A11422DD18168D5432940491C8160DE
:1027900002F056FD1C49064620681C4B884201D0B9
:1027A000984201D11A4A00E01A4A9268984202F00F
:1027B0001F0200D0014681421DD0E2B120E08168B5
:1027C00011F0010F03D181682940491C816002F09A
:1027D00037FD801B02280ED920680068C043C0075F
:1027E00009D0606D40F010006065A06D40F0010000
:1027F000A065012070BD20680168C943C907DED10A
:10280000002070BD3F0000800020024000210240F7
:102810000023024000630258F0B5B2EE041AC47BF4
:10282000417B00EE904A00EE101AC288F8EE601A62
:10283000B8EE400A868852BA00EE902A81EE814AAC
:1028400071BA037BF8EE601ADFED2A2A45884FF053
:10285000010206894789847B68BA75BA00EE905AEE
:10286000C0EE013A00EE101A03F07F01DB09B8EE6A
:10287000403A00EE101A79BA01EE101AB8EE405A3A
:1028800000EE104A1C49002BB8EE411AF8EE404AFF
:1028900081EEA22A00EE100A1848C3EE221AF8EEC2
:1028A000602A73EE850AB8EE403A34EE240AF1EE5F
:1028B000603A40FEA30AC1ED020A81ED030A81EDF0
:1028C000043AC1ED052A81ED061A81ED072AC1ED12
:1028D000081AC0ED090A80ED0A0A80ED0B3AC0ED36
:1028E0000C2A80ED0D1A80ED0E2AC0ED0F1A80F82B
:1028F0006E20F0BD00007A44089B0024109C002448
:102900000449002008704860034908800149643187
:1029100008707047089B0024D400002400487047CA
:102920006C9B00242DE9F0413E4C88B0201D0BF03B
:1029300059F900286AD0202800D92020694602468B
:10294000201D0BF098F9384E0024384D0746E84614
:1029500013E02888402805D218F80420411C32547E
:10296000298008E030483F22711CFEF73CFA18F835
:10297000040086F83F00641CA4B2BC42E9D342E0E4
:10298000002407E0325D3C2A03D132195278022A32
:1029900003D08CB2611C8142F4D33CB1021B2248AB
:1029A0003119FEF720FA2888001B288082B2112AEC
:1029B0002CD31D49002308783C282AD148780228C6
:1029C00027D100200C5C401C80B223441028DBB2CD
:1029D000F8D3087C98421CD113480124112100F03F
:1029E00029F81148FFF718FF02F02AFC0E49243994
:1029F00048600C7035312A880B48113AFEF7F3F91C
:102A000028881138288028881128B9D208B0BDE854
:102A1000F0810548711C521EFEF7E5F92888401E1A
:102A2000F0E70000F89700242C9B0024D400002439
:102A3000704700002DE9F047134E4FF000075FEAA2
:102A4000000988463D463C460ED13770BDE8F08708
:102A500019F805303019C4F180010CA2FDF73EFDD4
:102A60006D1C204484B2ADB2454502D2201D8028A1
:102A7000EED3601E7F2803D2301900F8017CE5E711
:102A800086F87F70E2E700006C9B00242530325806
:102A90002000000070B502F0D3FB064600F04AFEAD
:102AA0000BF0C8FAFFF72CFF0AF01AF8234C0025A8
:102AB0009FED210A04F14D0084ED000A84ED010A26
:102AC00025810F2265811EA184ED070A84ED080A85
:102AD00084ED090A84ED0A0A84ED0B0A84ED0C0AE0
:102AE00084ED0D0A84ED0E0A84ED0F0AA4F844501B
:102AF00084ED120A84F84C5084ED100A84F86D506D
:102B000084F86E5084F86F505034FEF729FA0F2283
:102B100025730CA104F10D00FEF722FA0AA0257717
:102B200000F01AF80B49A6F11402A6F1C800C1E999
:102B30000002886070BD000000000000109C0024AE
:102B40004E2F410030250000573438352B52414478
:102B500043000000AC00002410B500B905A00F220E
:102B600001460748FEF7FCF9054900200C39C876F4
:102B700010BD0000573438352B524144430000004B
:102B80001C9C002470B502F05BFB144D04462868C1
:102B9000201AC8280CD32C600BF0F8F818B109F0F3
:102BA000DBFF0FA002E00AF015F810A0FFF7D4FF3A
:102BB0006868201A142802D36C600BF077FAA868B2
:102BC000201AC82802D3AC60FFF732FF0BF06CFA72
:102BD000FFF7A8FEBDE8704009F0FABFAC00002482
:102BE000524144435F45525200000000573438358B
:102BF0002B524144430000002DE9F04F04009DB0EA
:102C00007ED040F22C51FEF784F91F222046D7A136
:102C1000FEF7A6F905F0CAFD00B1012084F82000F6
:102C200002F00EFB606200200AF0AEF8012800D02E
:102C3000002084F8280001200AF0A6F8012800D01E
:102C4000002084F8290094F8280008B1CBA100E006
:102C5000CCA11F2204F12A00FEF782F994F8290082
:102C600008B1C6A100E0C7A11F2204F14A00FEF787
:102C700077F9002684F86A601F2284F86B60C3A18C
:102C800004F16C00FEF76CF9C24D1F2205F10C0136
:102C900095ED000A8B4684ED230A95ED010A84ED3B
:102CA000240A2889A4F894006889A4F8960004F1FD
:102CB0009800FEF755F9D5ED070A9FEDB70AC4ED68
:102CC0002E0AD5ED080AC4ED2F0AD5ED090AC4ED88
:102CD000300AD5ED0A0AC4ED310A84ED320A84EDDA
:102CE000330A95F84C0084F8D00095ED100A84ED75
:102CF000350A95ED0C0A84ED360A95ED0D0A00E0D3
:102D000031E184ED370A95ED0B0A1F2284ED380A74
:102D100095ED0E0A05F14D0184ED390A95ED0F0A86
:102D200084ED3A0AB5F84400A4F8EC0004F1F4008C
:102D300095ED120A84ED3C0AFEF712F91F2205F107
:102D40005D0104F58A70FEF70BF9944F97F82B009C
:102D500008B193A100E093A11F2204F59A70FEF739
:102D6000FFF88E497F2204F5AA703831FEF7F8F893
:102D70008A497F2204F5EA707831FEF7F1F8B889C4
:102D8000A4F8540297F82A0084F8560204F5157442
:102D9000854800F0A7FC6060834800F0B7FCA060A5
:102DA000A94682480178217395F86D10617395F8F2
:102DB0006F00A07344F8546F05F0FAFA207105F023
:102DC000FDFAA06007F020F8E06007F017F8DFF8E0
:102DD000E0A120619AF8021021759AF8031061753C
:102DE0009AF80410A1759AF80510E1759AF8061082
:102DF0002176DAF80C10E161DAF810002062A4F50F
:102E00002A7405F0E1FA074605F0CAFA064605F00D
:102E1000CBFA054605F0BEFA804604F5337027B1BB
:102E2000397811B11F22394602E061491F22183159
:102E3000FEF796F804F2AC4026B1317811B17F224A
:102E4000314602E05A497F223831FEF789F805F011
:102E5000C5FA1F22014604F53B70FEF781F804F520
:102E6000437655B1287840B120212B4651A2CDF8A8
:102E7000008015A8FDF732FB05E0202143464FA254
:102E800015A8FDF72BFB1F22304615A9FEF768F8A1
:102E9000DAF80800554608B1C4F8640204F51A7659
:102EA00095F8B80028B142491F223046B831FEF7E4
:102EB00057F895F8D80004F5227728B13C491F222D
:102EC0003846D831FEF74CF8A87804F56B7550B148
:102ED00099F86D1099F86F0041B170B105F066FC7A
:102EE00070B138A00EE07F2237A10DE04FF07F02D5
:102EF00008B13AA108E03DA106E07F223FA103E02E
:102F000005F06CFA7F2201462846FEF729F8FFF704
:102F100005FD007810B1FFF701FD00E03CA07F2225
:102F2000014604F22C40FEF71BF805F057FA802109
:102F30005B4638A2009004F54B70FDF7CFFA01A86C
:102F400004F09EFE00280ED102981F220DF11301FD
:102F5000C4F864023046FEF703F81F2238460DF12C
:102F60003301FDF7FDFF1DB0BDE8F08F72656C61A8
:102F7000795F683734335F30303100006F70656ED1
:102F800000000000636C6F73656400006175746F0E
:102F900000000000109C002400000000109A002493
:102FA000444952005350440004990024089B0024D3
:102FB000C403002425733A256400000072633D2594
:102FC000640000004F4B00004C363130204154204B
:102FD0006E6F7420726561647900000057494E4439
:102FE0003438355F4F46464C494E450057454154AD
:102FF0004845525F4F46464C494E45005241494E66
:103000005F4144435F4F46464C494E450000000037
:103010004E2F4100776561746865723D2573206DA0
:103020007174743D257300000A281AD2DFE800F09D
:103030000507090B0D0F111315170BA070470BA0F7
:1030400070470CA070470CA070470DA070470DA0F2
:1030500070470EA070470FA0704710A0704711A0D6
:10306000704712A0704700004154000041544530A1
:1030700000000000415449004350494E0000000048
:103080004353510043524547000000004347524517
:10309000470000004347415454000000434F505341
:1030A000000000004347504144445200444F4E4505
:1030B0000000000018B1022803D003A0704704A04C
:1030C000704704A0704700004552524F5200000064
:1030D0004F4B000054494D454F555400FEB5694CC7
:1030E00000258DF80050019502956078002874D174
:1030F00002F0A6F8616988426FD3012004F05CFCFD
:1031000000286AD12078012640F2DC510A2876D2C4
:10311000DFE800F0051B27374F64768799A6642205
:1031200059A006F06FFD0746014657A000F07EFA51
:1031300055A0394600F01AF92FB15FF00000A570D4
:1031400000F0D6F89AE0A6707BE064224FA006F06B
:1031500059FD044601464DA000F068FA4BA02146F7
:103160000CE096224FF4FA614AA006F04BFD0446AB
:10317000014648A000F05AFA46A0214600F0F6F8B1
:103180005FE0642244A006F03DFD0546014642A0F2
:1031900000F04CFA40A0294600F0E8F8002D50D18C
:1031A00004F03AFD3FA1FDF72EFD002849D0E6705E
:1031B00047E002A901A804F033FD054601463BA003
:1031C00000F034FA39A0294600F0D0F8002D38D1AB
:1031D0000198A0600298E06033E052E0684604F095
:1031E0006BFC0546014633A000F020FA31A02946C9
:1031F00000F0BCF82DBB9DF80000207121E03CE000
:10320000684604F023FC054601462DA000F00EFAA6
:103210002BA0294600F0AAF89DB99DF80000607126
:103220000FE0684604F0E0FB0546014627A000F0E9
:10323000FDF926A0294600F099F815B99DF800007F
:10324000A07101207CE70F482021B83004F0C2FDB6
:103250000446014620A000F0E9F91FA021468DE7B1
:1032600008482021D83004F021FD044601461DA065
:1032700000F0DCF91BA0214680E76670012004F015
:103280009DFCFEBDC4030024415400004154453060
:10329000000000004154490041542B4350494E3F27
:1032A00000000000524541445900000041542B43A6
:1032B0005351000041542B435245473F000000004A
:1032C00041542B43475245473F00000041542B4394
:1032D000474154543F00000041542B434F50533F4B
:1032E0000000000041542B43475041444452000029
:1032F00010B5154C002896B02078024600F1010068
:10330000C1B205D0217001F09BFF00F5967005E079
:10331000002AF7D101F094FF00F2DC5060612078C0
:103320000A2801D301216170FFF77EFE0346607811
:103330005021009005A201A8FDF7D0F801A800F0E7
:10334000BFF916B010BD0000C40300245B4449411E
:10335000475D206E6578743D257320636F6D706CDA
:103360006574653D25750D0A000000002DE9F041EA
:103370008846064604F050FC0F4D04464FF0000707
:103380003EB11F22314605F11800FDF7E9FD85F831
:1033900037704CB1207838B107487F222146383049
:1033A000FDF7DEFD85F8B770B8F1020F02D128698C
:1033B000401C2861BDE8F081C403002470B509F009
:1033C000E9FC23A123A000F0C9F824A12AA000F061
:1033D000C5F804F05BFD05F079F900F0AFFBFFF7ED
:1033E00059FB06F017FD06F04FFE08B118A100E0EA
:1033F00022A124A000F0B2F8234924A000F0AEF8E6
:1034000040F6B83001F0E0FD0124204604F0D4FA83
:1034100030B9012006F042FC0446012004F0CEFB46
:103420002046FFF747FE014619A000F097F81B4819
:10343000F821FDF76EFD19480025057014B901212A
:103440008170C170204600F0A9F81548056070BD74
:103450006F6B0000636C6F636B0000006D717474C0
:103460002D6D697063616C6C2D6669782D75617264
:1034700074362D7631000000667700006661696C55
:10348000000000006C6364001C9C00246164630005
:103490006C3631302073796E63000000C403002461
:1034A0001C00002410B500F04FFC06F031F9FFF7C6
:1034B00015FEFFF767FB06F0C1FC1E4840780028A8
:1034C00007D004F085FF1C4C072803D301F0B8FE99
:1034D000206010BD00F050FB0028FAD1206838B100
:1034E00001F0AEFE226841F28831801A8842F0D3A2
:1034F00001F0A6FE206004F06BFF28B905F0A7FAE2
:10350000010001D00DA011E004F062FF062805D2F1
:1035100004F0D0FD010001D00BA007E004F058FF3B
:103520000728D6D206F0A2F8014609A0BDE810404F
:1035300000F09CB8C40300241C0000245072657085
:103540006172654E65740000436F6E6E6563740052
:1035500053756273637269626500000000B599B0CB
:1035600001B907A1009100B906A06021034607A296
:1035700001A8FCF7B3FF01A800F0A2F819B000BD44
:10358000000000007374616765000000424F4F54F3
:103590003A2025732025730D0A00000010B5ADF503
:1035A0008E6D044610A000F08BF82046FFF782FDD8
:1035B000A021034614A2F3A8FCF790FFF3A800F0A3
:1035C0007FF8164800F07CF8684604F0D5FEA0218C
:1035D00013A2F3A80DF5A173FCF780FFF3A800F088
:1035E0006FF80DF58E6D10BD0D0A4C36313020642C
:1035F0006961676E6F73746963206D6F64652072B3
:10360000656164790D0A00004D6F64656D20737902
:103610006E633A2025730D0A00000000042E010895
:10362000434D443A2025730D0A00000010B59AB0AE
:1036300004460846FFF73EFD009004B905A460214A
:10364000234605A201A8FCF749FF01A800F038F8BD
:103650001AB010BD434D44005B444941475D2025ED
:1036600073202D3E2025730D0A000000F0B5C3B075
:103670000E46054604F08AFE044604F095FE074611
:10368000304604F001FFCDE9000706A22B464FF4B7
:103690008071029403A8FCF721FF03A800F010F842
:1036A00043B0F0BD5B4150505D2025733A20257337
:1036B0002028257329206C6173743D25730D0A0041
:1036C00010B504000AD0FDF7DFFA2146BDE810402E
:1036D00082B203484FF47A7304F0F2B810BD0000D0
:1036E0003003002406498842064901D10868704722
:1036F000054A904201D1C868704700207047000019
:10370000F8970024B8000024049900240649884250
:10371000064901D148687047054A904201D10869BD
:103720007047002070470000F8970024B80000247C
:103730000499002410B500F0D1F80E4800220F4B78
:103740000D4900F5867408C00D4B23600A604A607D
:103750008A60CA600A614A610AF05FFA201D0AF0B5
:103760005CFA044800F00EF82046BDE8104000F076
:1037700009B80000F8970024B80000249C02002437
:1037800008020024036800F584710122184604F041
:103790003BB8000070B500281DD00F490F4A8B7848
:1037A00063B90F4B1C68002544F080761E6001242D
:1037B0005560136843F0010313608C7009490A4B8C
:1037C0000968B1FBF3F1414300D10121506853680E
:1037D0001B1A8B42FBD370BDD0000024001000E008
:1037E000FCED00E01400002440420F0070B50546D7
:1037F00000F0FEF8002000F0E7F80024E80900F0EF
:10380000EDF86806050E0220FFF7C4FF012000F066
:10381000DBF80220FFF7BEFF002000F0D5F8022001
:10382000FFF7B8FF641CE4B2082CE7D370BD10B5F5
:1038300000F0DEF8012000F0D1F8012000F0C4F81B
:103840000420FFF7A7FF002000F0C8F80420FFF7CE
:10385000A1FFBDE81040002000F0B6B810B500F0A0
:10386000C7F8002000F0B0F8002000F0B7F80420FE
:10387000FFF790FF012000F0A7F8012000F0AEF85C
:10388000BDE810400420FFF785BF000070B5124D61
:103890000024286820F440602860012000F09EF891
:1038A0000120FFF777FF012000F08EF80120FFF7DD
:1038B00071FF06E0641CFA2C03D9FFF7CFFF01204B
:1038C00070BD2021284601F0ABFC0128F2D0002079
:1038D00000F07AF8002070BD001C0258F0B58BB0E3
:1038E00014216846FDF715FB264C206840F00200C5
:1038F00020602068002601256946032700F00200A9
:1039000005902803CDE900061F48CDE9025701F0D4
:103910006DFB142105A8FDF7FCFA206840F080003B
:103920002060206805A900F080000A903020CDE9D1
:1039300005051648CDE9075701F058FB012000F0B6
:103940004DF8012000F040F8114CFF202670607007
:10395000FFF76DFF4020FFF749FFFFF797FF28B9FA
:10396000FFF77CFFFF2000F015F810B101200BB02D
:10397000F0BD0020257000F047F80028F7D0267031
:10398000F4E70000E044025800040258001C02580A
:10399000D000002410B50446FFF749FF4020FFF790
:1039A00025FFFFF773FF28B92046FFF71FFFFFF73A
:1039B0006DFF08B1012010BDFFF750FF01484470B2
:1039C000002010BDD000002408B1012200E0002238
:1039D0000148102101F029BC001C025808B1012245
:1039E00000E000220148202101F01FBC001C025809
:1039F0000448016821F440610160016841F480617C
:103A000001607047001C025807490A782AB1002853
:103A1000487804D040F0400003E00120704700F0F7
:103A2000BF00FFF7B7BF0000D00000242DE9F04130
:103A300004001E4615460F4632D08FB385B3194891
:103A4000007868B32168402008620120FFF7DCFF9E
:103A500030BB33462A463946204603F031FF18B1C1
:103A60000020FFF7D1FF1BE001F0EAFB05460AE06A
:103A700001F0E6FB401BB04205D30020FFF7C4FF76
:103A80000320BDE8F0812068C069C0434006EFD440
:103A9000012001F099FA0020FFF7B6FF0028F0D0CE
:103AA0000120EEE7D0000024FEE7000005484FF4B7
:103AB000807110B5FDF70BFA0348002141700161D8
:103AC00010BD00002C4600243000002402480021D4
:103AD00041808180704700003000002410B504460A
:103AE00000F01AF901F0ACFB0D490D2C086109D06A
:103AF0000A2C07D04878FF280BD20A4B421C1C54D2
:103B00004A7010BD48780028FBD0BDE8104000F096
:103B100075B8FFF7CBFFBDE8104003A000F042B935
:103B2000300000242C4600240D0A434D4420544FFD
:103B30004F204C4F4E470D0A3E2000000A480021FE
:103B40000A4A10B582600170C160FFF7BFFFFFF73E
:103B5000ADFF00F0EDF8064800F024F9BDE8104094
:103B6000044800F01FB90000300000243003002496
:103B7000DC2E0108242F010810B5054CE068002850
:103B800004D001F05DFBE168401AC00F10BD0000D9
:103B900030000024094910B5896888420CD10268B8
:103BA0000F21116203F02EFAFFF790FFFFF77EFF5F
:103BB000BDE8104000F0BCB810BD0000300000248B
:103BC0000C4930B48A68904211D10A7848888B88B1
:103BD000401CC0B2984203D18B885B1CDBB28B8047
:103BE0004B88054CE254488030BC00F0A1B830BC92
:103BF00070470000300000242C4500242DE9F041DE
:103C0000304F787800285AD02F4A002111542FA025
:103C100000F0C8F82C4800F0C5F82EA000F0C2F85B
:103C200000F07AF8284808F011FC054608F0AEFAD2
:103C3000044608F0AFFA064627A000F0B3F81EB11C
:103C4000307808B1304602E0012D0BD025A000F0FD
:103C5000A9F820A000F0A6F875B1022D09D0032D17
:103C600007D02AE021A000F09DF81AA000F09AF8F1
:103C700023E014B3207800B31FA000F093F8ACB198
:103C8000207898B12046FCF7FFFF85B2B8684FF462
:103C90007A732A46214603F013FE25B1601910F805
:103CA000010C0A2802D00BA000F07CF8FFF7FEFE02
:103CB000BDE8F04112A000F075B812A0F4E7BDE82D
:103CC000F0810000300000242C4600240D0A434DF2
:103CD000443A20000D0A00005354415455533A20F1
:103CE000000000004552524F52000000554E4B4E0E
:103CF0004F574E5F434D440052583A0D0A000000A2
:103D00003E20000052583A0D0A554E4B4E4F574E2A
:103D100020434D440D0A000010B501F091FA47F21E
:103D2000305108440149C86010BD00003000002433
:103D300004488068002803D00249012203F064BDD2
:103D4000704700003000002470B5144CA0680028B3
:103D500022D0134E0025A0886188884212D1002D00
:103D60001AD16078002817D02069002814D001F0FB
:103D700067FA2169401AB0F5487F0DD3BDE870405D
:103D8000FFF73CBFA088A188491C305CC9B2A18064
:103D90000125FFF7A3FEDEE770BD00003000002420
:103DA0002C45002470B50B4D0446A868002810D09F
:103DB000002C0ED0207800280BD02046FCF764FFA2
:103DC00082B2A8682146BDE870404FF47A7303F0D0
:103DD00077BD70BD300000247047704772B6FEE7B3
:103DE000054805490839026842F002020260086885
:103DF0008004FCD5704700000C480258F0B5B3F5BC
:103E0000804F05D06FF0704140F822100020F0BDC7
:103E100091E838008F898E6950F8221024013343CD
:103E2000054E44EA05242343314043EA07430B434C
:103E300040F82230EAE700000000F0CFF0B50A6851
:103E400050F8223023F0010340F822308C68082C0F
:103E50002CD000264A68D1E903CE22434CEA060C56
:103E600001F1140342EA0C0242EA0E0293E8F85010
:103E70001A4322430C682A43D1E90C35324350F8E7
:103E800024603A4342EA0C02DFF840C042EA0E02E4
:103E90008F6B13431D432F4326EA0C063E4340F825
:103EA00024600A6BB2F5801F02D007E04026D1E7FC
:103EB0000A684AB1026842F4801202600A681AB1C4
:103EC0000268496B0A4302600020F0BD7FFB3F009F
:103ED000F0B5D1E901630C6800EB8202B1F80CE0A7
:103EE00044EA06140E7D4FEA032C104B0D8A4CEA6F
:103EF0000E4C44EA0C045F0107EB066603EB055722
:103F00008D693C4334432C4354600268D2020BD584
:103F1000098A4268446803EB015122F4700211439C
:103F200024F470030B4343600020F0BD0000F0FF59
:103F3000F8B50027044615460E46009790F8500045
:103F400001280BD0012084F850002046FEF7D8FB52
:103F50000100606D04D040F010002DE00220F8BD9B
:103F600020F4885040F002006065206806F480323A
:103F700005F08043134D1A4383682B401A4342F0E7
:103F800000428260104A20680EE0009B5B1C009398
:103F9000934209D3606D84F8507020F0020040F025
:103FA000100060650120F8BD8368DB0FEDD1606D06
:103FB00020F0020040F001006065084684F850706F
:103FC000F8BD0000C0FFFE3F00F8C3252DE9F04713
:103FD0000F4690F850109AB0044601294FF000099E
:103FE00015D00026DFF8F880012084F850001596DF
:103FF0001696216841450ED13A4D0095284606F0A7
:104000002FF98246206806F02BF960B10EE00220FD
:104010001AB0BDE8F087606D84F8506040F0200071
:1040200060650120F4E7BAF1000F09D0616D4FF02F
:10403000010941F020006065484684F85060E7E7D8
:1040400020684146884201D0A84201D1264800E0BC
:10405000264840F61F72D7F800C0254BBCF1000F70
:1040600023D0D0F808C0D7F804802CF4404C4CEA98
:10407000080CC0F808C0D4F800C08C4501D0AC458D
:1040800007D18968AB6801F0010103F0010319430E
:1040900002E0996801F001010029CDD1BD683968BD
:1040A000836829439343194317E0876827F44047FF
:1040B000876027688F4201D0AF4207D18968AB681B
:1040C00001F0010103F00103194302E0996801F0D6
:1040D00001010029B0D1816891438160ACE7000003
:1040E00000200240002102400023024000630258E9
:1040F000006002582DE9F84F04460D460020DFF815
:10410000A8B30090074694F85010DFF8A0A32068E9
:104110000129E74E07D04FF0010984F8509006F0CE
:104120009BF818B171E10220BDE8F88F28680028DB
:104130000EDB21680303CA6928D090FAA0F0B0FA18
:1041400080F000BF00F01F0309FA03F00243CA61C8
:10415000D5E900124FF00C0C20681F23C1F38461D5
:104160000CEA921C02F01F02604493409140026BE3
:104170009A430A430263206806F06EF8804620687E
:1041800006F066F858EA000003D08DE0C0F38460C2
:10419000D8E72A68042320684FF0070CA96803EACF
:1041A000D25318444369C2F304520CFA02FC914002
:1041B00023EA0C030B434361BE490968B9EB117F45
:1041C00006D121686869C968C1F38201490008E025
:1041D0002068C168C906C1686869F5D501F0100199
:1041E00049088840296904292ED023682A6803EBEE
:1041F000810102F0F8420B6E024303F000401043CD
:104200000866697E22682869012917D05FF00001DD
:1042100002EB8000026E22F000420A430266297E11
:1042200020682A6901290CD00021036902F01F02CD
:10423000914023F4F0420A43026135E04FF000411F
:10424000E6E74FF40061F0E720682978026E02F09B
:10425000F842B2EB816F03D1016E21F0004101669B
:1042600020682978426E02F0F842B2EB816F03D1E8
:10427000416E21F00041416620682978826E02F08B
:10428000F842B2EB816F03D1816E21F0004181666B
:1042900020682978C26E02F0F842B2EB816F03D138
:1042A000C16E21F00041C1662068816811F0010FE4
:1042B00072D150F8C02F2B7BDFF8FCC1296803F0C6
:1042C00018032CFA03FCC1F3130822EA08020CEAD3
:1042D000010C42EA0C020260E96859456CD177484A
:1042E0002268DFF8DCC1DFF8DCB18242DFF8D8E118
:1042F0007648774BDFF8DC8122D12968614524D0EC
:10430000B1EB4C0C38D0A1F1496CBCF1080C35D0A4
:10431000A1F1865CBCF1100C32D0DFF8BCC1614564
:1043200028D071453AD0814230D0994232D06B4882
:10433000814201D16A4831E041452ED169482DE0E2
:10434000B2422AD12968614501D1012026E0A1F1BC
:10435000066CBCF1040C0FD0A1F1496CBCF1080C47
:104360000CD0A1F1865CBCF1100C09D0DFF868C15B
:10437000614507D15C4811E058460FE05B480DE00D
:104380005B480BE0714509D0814201D1184605E038
:104390009942D1D1574801E03CE00020D1690303A4
:1043A0001AD090FAA0F0B0FA80F000BF00F01F031E
:1043B00009FA03F00143D161D5F800C0BCF1000F48
:1043C00028DA3E4B20684C49DFF83091984201D002
:1043D000B04203D10A4602E0800EE7E74A469268FF
:1043E000984202F0E07201D0B04209D19D68D6F83F
:1043F000088005F0010508F0010845EA080503E01A
:10440000DAF8085005F001054DB1606D012740F064
:1044100020006065002084F85000384684E6384D5E
:10442000AC451CD115021AD45045F3D1984202D0A4
:10443000B04200D049468B6842F4000023F0E0729D
:1044400002438A6030492F480968B1FBF0F0400010
:10445000801C00E0401E00900028FBD1DAE72B4DC5
:10446000AC450CD1D5010AD45045D3D1984202D0E5
:10447000B04200D049468B6842F080700EE0244D77
:10448000AC45C7D15502C5D45045C3D1984202D0DE
:10449000B04200D049468B6842F4800023F0E072BD
:1044A00002438A60B6E700000000FF470060025840
:1044B000002102400010005CFFFF0F0000200240BE
:1044C00002003004400020190004002A0008302EA9
:1044D000001060320000844B2000F01400002143E3
:1044E000000052470000B84F0002B0258000501D68
:1044F0000001802100209036002302400063025812
:10450000000084CB400D030014000024000052C7BB
:104510000000B8CF0068006C70470000F8B54FF09D
:10452000000604003546009602D0606D10B107E029
:104530000120F8BD204600F005F9A66584F850601A
:1045400020688168C1F3407119B18168704A1140D7
:10455000816020688168C1F3007181B981686D4A0A
:10456000114041F0805181606C496B480968B1FB92
:10457000F0F0401C00E0401E00900028FBD12068B5
:104580008168C1F3007141B9616D012541F01001ED
:104590006165A16D41F00101A16505F05DFE616DF0
:1045A000C90600D420B1606D012540F0100093E0F1
:1045B000606D20F4807040F00200606520688168C2
:1045C00011F0010F1FD1564A564B904201D098422C
:1045D00007D191689E6801F0010106F001063143A0
:1045E00003E05149896801F0010161B9904201D0AD
:1045F000984201D14D4800E04D488268616822F43C
:104600007C120A43826000F015FE41F203018842E9
:1046100002D9A06810280CD0617D227FA368206B8E
:10462000490341EA024118430843217F01290CD084
:1046300010E0607D227F216B400340EA024241F09E
:104640001000104340F00C00EFE7218C394A02EBD8
:1046500041410843616A29B1A26A01F478710143BA
:1046600042EA01002168344BCA681A400243CA601A
:10467000206805F0F1FD0646206805F0E9FD3043AD
:104680001DD1216844F20303267DE26AC86842EA2C
:10469000863298431043C86094F8380001281ED031
:1046A0002068016921F0010101612068626B0169E4
:1046B00021F07041114301612046FDF72BFFE068B6
:1046C000012820681CD0016B21F00F010163606D8F
:1046D00020F0020040F0010060652846F8BD206827
:1046E000A28F164FD4E9101C154E07EB0247A36C9E
:1046F000026941EA0C013B43324019431143D3E7BD
:10470000A269016B521E21F00F011143DEE7000088
:10471000C0FFFF5FC0FFFF7F400D030014000024B7
:1047200000200240002102400060025800230240A5
:10473000006302580000FEFF03C0F0FF0100FFFF0E
:104740001EF800FCF0B5B7B00446142130A8FCF701
:10475000E0FBC0216846FCF7DCFB1D49206888426D
:1047600034D100220220154604234FF400218DE8A5
:104770000E000926C027CDE90360390129922024C3
:104780000590CDE90607CDE90841684601F0D8F962
:1047900008B1FFF723FB0F48016841F020010160D9
:1047A000006800F0200035900A480830016841F0A8
:1047B00004010160006830A9329500F004003590D2
:1047C0000320CDE93040044800F010FC37B0F0BDC4
:1047D00000200240D8440258000802582DE9F04752
:1047E000434D0446006888464249434BA842DFF8DF
:1047F0000C9101D0484501D10A4600E01A46926862
:1048000002F01F062269082A14D0AEB1052E13D07B
:10481000092E11D0A84202D0484500D01946886818
:1048200000F4404058B1606D40F020006065012008
:10483000BDE8F087082703E0C068C007F2E7042757
:1048400000F0FEFC824618E0B8F1FF3F15D000F002
:10485000F7FCA0EB0A01414502D8B8F1000F0CD1DA
:1048600020680068384208D1606D002184F850103B
:1048700040F0040060650320DAE7206800683842F1
:10488000E2D0606D40F400706065206805F0ECFCDB
:1048900080B1607D70B92068006800070AD5606D3E
:1048A00020F480706065606DC00403D4606D40F0DA
:1048B000010060652068484501D12A4600E00246B3
:1048C000824210D07EB1052E0DD0092E0BD0484566
:1048D00000D00546E968082F07D0490401D40C210F
:1048E00001600020A4E7C168F5E70821F8E70000AF
:1048F00000200240002302400063025800210240D1
:104900002DE9F0413B4D044600683B4FA84201D0E1
:10491000B84201D1394900E03949896801F01F06E0
:1049200005F09AFC18B102210846BDE8F08194F820
:10493000500001280CD0012084F850002046FDF7DB
:1049400017FF01004FF0000204D084F85020EBE77D
:104950000220EAE7636D40F6016C206823EA0C034D
:10496000B84243F48073636501D12B4600E00346EF
:10497000834200D01EB9636D23F480136365636DB9
:10498000DB0404D5A36D23F00603A36500E0A26554
:104990001C23036084F850202068B84201D12A46C5
:1049A00000E00246824215D0A6B1052E12D0092E93
:1049B00010D0626DB84242F48012626500D00546A4
:1049C000E8688001B0D5606D20F4005040F480505C
:1049D0006065A9E7C268920105D5626D22F40052B4
:1049E00042F4805262658268064B1A40121D826052
:1049F0009AE700000020024000210240002302400C
:104A000000630258C0FFFF7F10B5044690F85000C5
:104A1000012808D0012084F8500003212046FDF72A
:104A2000FDFD10B10BE0022010BD2046FDF768FE31
:104A300028B9616D21F4885141F0010161650021BF
:104A400084F8501010BD00002DE9F84F044600F026
:104A5000F7FB00903CB194F83500022806D0802185
:104A600061650020E4E00120BDE8F88FC74DC74E26
:104A7000C649183520683036DFF81483DFF8149300
:104A80008842DFF814A3DFF814B328D0A84226D058
:104A9000B04224D0404522D0484520D050451ED0B9
:104AA00058451CD0BD4A1832904218D0BC4A90429A
:104AB00015D0BB4A1832904211D0B94A30329042D8
:104AC0000DD0B74A4832904209D0B54A6032904280
:104AD00005D0B34A7832904201D0B14A9032026890
:104AE00022F001020260206888422ED0A8422CD019
:104AF000B0422AD0404528D0484526D0504524D041
:104B0000584522D0A54A183290421ED0A44A90425D
:104B10001BD0A34A1832904217D0A14A303290429B
:104B200013D09F4A483290420FD09D4A6032904243
:104B30000BD09B4A7832904207D0994A90329042EB
:104B400003D0974AA832904209D1026822F01E028F
:104B500002602068426922F08002426103E002683C
:104B600022F00E0202602768884938468F424DD0F5
:104B7000A8424BD0B04249D0404547D0484545D0E7
:104B8000504543D0584541D08449183188423DD0E2
:104B9000834988423AD082491831884236D08049C8
:104BA0003031884232D07E49483188422ED07C490B
:104BB000603188422AD07A497831884226D07849B3
:104BC0009031884222D07649A83188421ED075495A
:104BD00088421BD073491431884217D0714928315B
:104BE000884213D06F493C3188420FD06D49503113
:104BF00088420BD06B496431884207D069497831CB
:104C0000884203D067498C318F4214D1206E0168ED
:104C100021F4807101600EE000F012FB0099401A4F
:104C2000052808D9202262650321002084F8351068
:104C300084F8340017E73868C007EDD1534A0121E2
:104C4000206890422ED0A8422CD0B0422AD04045B5
:104C500028D0484526D0504524D0584522D04F4B27
:104C6000183398421ED04E4B98421BD04C4B1833F1
:104C7000984217D04A4B3033984213D0484B4833B0
:104C800098420FD0464B603398420BD0444B783358
:104C9000984207D0424B9033984203D0404BA83300
:104CA000984208D194F85C703F23A06D07F01F076D
:104CB000BB40836007E094F85C30A06D03F01F03F5
:104CC00001FA03F34360206890424DD0A8424BD0D4
:104CD000B04249D0404547D0484545D0504543D0E3
:104CE000584541D02D4A183290423DD02C4A90422E
:104CF0003AD02B4A1832904236D0294A303290426C
:104D000032D0274A483290422ED0254A6032904213
:104D10002AD0234A7832904226D0214A90329042BB
:104D200022D01F4AA83290421ED01E4A90421BD069
:104D30001C4A1432904217D01A4A2832904213D09B
:104D4000184A3C3290420FD0164A503290420BD053
:104D5000144A6432904207D0124A7832904203D00B
:104D6000104A8C3290420BD1D4E919024260E06EB5
:104D700030B1026822F480720260D4E91C02426001
:104D8000002084F8351084F834006DE610000240ED
:104D9000580002407000024088000240A00002401B
:104DA00010040240085402582DE9F05F28B190F831
:104DB0003510022904D0802141650120BDE8F09F13
:104DC000764A764BDFF8D4C1183201683033744C20
:104DD000DFF8D0B16145744D744E754FDFF8D4E102
:104DE000DFF8D4A1DFF8D49131D091422FD099428D
:104DF0002DD0A1422BD0594529D0A94227D0B1426C
:104E000025D0B94223D0DFF8AC81A8F1780841451C
:104E10001DD0DFF8A081A8F16008414517D0DFF868
:104E20009481A8F14808414511D0DFF88881A8F1A4
:104E3000300841450BD0DFF87C81A8F118084145C6
:104E400005D0714503D0514501D049452AD14FF0D5
:104E5000040880F8358061451FD091421DD09942E9
:104E60001BD0A14219D0594517D0A94215D0B14243
:104E700013D0B94211D04F48783881420DD04D48F7
:104E80006038814209D04B484838814205D04948B2
:104E90003038814201D047481838086820F00100B6
:104EA000086078E0D1F8008028F00108C1F800809F
:104EB0000168D1F8008028F00E08C1F80080016870
:104EC000614546D0914244D0994242D0A14240D05F
:104ED00059453ED0A9423CD0B1423AD0B94238D02F
:104EE000344A783A914234D0324A603A914230D0D2
:104EF000304A483A91422CD02E4A303A914228D03A
:104F00002C4A183A914224D0714522D0514520D0E4
:104F100049451ED02A4A91421BD0294A1432914257
:104F200017D0274A2832914213D0254A3C32914269
:104F30000FD0234A503291420BD0214A6432914221
:104F400007D01F4A7832914203D01D4A8C329142D9
:104F500018D1026E0121136823F48073136090F856
:104F60005C30826D03F01F0399405160D0E9191243
:104F70004A60C16E31B10A6822F480720A60D0E9D9
:104F80001C124A600122016D002380F8352080F850
:104F9000343001B18847002010E7000010000240C3
:104FA000580002407000024088000240A000024009
:104FB000B800024088040240A0040240B804024045
:104FC00008540258406D704770B5044600F038F937
:104FD0000546601C02D004480078044400F030F913
:104FE000401BA042FAD370BD080000242DE9F84F01
:104FF00003247F4D00234FF001094FF0B04B4FF0D9
:105000000F0AEDE009FA03F632407AD00F7907F083
:105010000307012F01D0022F19D187684FEA430EF1
:10502000D1F80CC004FA0EF827EA08070CFA0EFCB7
:105030004CEA070CC0F808C0D0F804C00F792CEA7D
:10504000060CC7F300179F4047EA0C0747600E792C
:10505000F643B60702D18E68012E0BD0C6684FEA20
:1050600043088F6804FA08FC26EA0C0607FA08F7DA
:105070003743C7600E7906F00306022E12D1DE0810
:105080000F694FEA437C00EB8606B646366A4FEA64
:10509000DC6C0AFA0CF807FA0CF726EA0806374324
:1050A000CEF820700F7906684FEA430807F003072F
:1050B00004FA08FC07FA08F726EA0C0637430760EB
:1050C0004E6816F4403F1CD04A4E376847F002073E
:1050D000376036689F0706F00206009623F0030645
:1050E00006F1B046B6463F0FD6F80864DFF80881EF
:1050F0000AFA07FC404526EA0C0603D14FF0000CE3
:1051000041E06CE0DFF8F4C0604502D14FF0010CE3
:1051100039E0DFF8ECC0604502D14FF0020C32E01C
:10512000DFF8E0C0604502D14FF0030C2BE0DFF860
:10513000D8C0604502D14FF0040C24E0DFF8CCC0A9
:10514000604502D14FF0050C1DE0DFF8C4C060459A
:1051500002D14FF0060C16E0DFF8B8C0604502D16E
:105160004FF0070C0FE0DFF8B0C0604502D14FF000
:10517000080C08E0DFF8A4C0604502D14FF0090C2C
:1051800001E04FF00A0C0CFA07FC4CEA060CCEF8D2
:1051900008C44F68DBF80060FF0226EA020600D56B
:1051A00016435F46CBF80060D1F804C0DBF804601A
:1051B0005FEA8C2C26EA020600D516437E606E68F4
:1051C0004F6826EA0206BF0300D516436E602E68BC
:1051D0004F6826EA0206FF0300D516432E605B1CCB
:1051E0000A6832FA03F67FF40DAFBDE8F88F0000CD
:1051F00080000058F444025800000258000402588D
:1052000000080258000C02580010025800140258FE
:1052100000180258001C02580020025800240258AE
:105220000069084000D0012070470AB181617047D1
:105230000904FBE701480068000C70470010005C9F
:105240000148806870470000080000240248816817
:10525000027811448160704708000024032010B5D3
:1052600000F0D4F801F0B6FA0F4A10491468136838
:10527000C4F3032203F00F038A5CC95C02F01F022F
:1052800001F01F01D0400A4A20FA01F111600949DA
:1052900008600F2000F010F808B1012010BD00F0E8
:1052A00079F8002010BD0000184402584EFD000897
:1052B000180000241400002470B50D4D0446287811
:1052C000A0B14FF47A71B1FBF0F00A490968B1FB63
:1052D000F0F001F014FE48B9102C07D2002221464C
:1052E000501E00F073F800206C6070BD012070BD8E
:1052F0000800002414000024154BF0B5083B427848
:1053000013491A600B680A1F23F001030B604368FE
:105310001360057BC67A827A437B2D07847B45EA3E
:105320000665C77B90F809C0067A90F800E045EA68
:10533000C24040EA834040EA444040EA074040EA35
:105340000C2040EA460040EA0E000860F0BD000074
:10535000A0ED00E0BFF35F8F044800210368034A1B
:1053600023F48033036070321160704724ED00E055
:10537000074A40F00100064970321060086840F4A6
:1053800080300860BFF34F8FBFF36F8F704700000E
:1053900024ED00E0054808B5016841F00201016014
:1053A000006800F00200009008BD0000F4440258BC
:1053B000002809DB410900F01F028900012001F1EA
:1053C000E0219040C1F80001704700000E4BF0B49E
:1053D0001B680D46C3F30223C3F10706042E00D950
:1053E0000426191D072901D2002300E0DB1E012439
:1053F00004FA06F19C40491E2940641E994014405D
:105400002143F0BC08F0D2BF0CED00E0064900F0EB
:10541000070210B54FF6FF040868044B204040EA2D
:1054200002201843086010BD0CED00E00000FA05F2
:10543000134970B50A68D243520705D5096801F0CF
:105440000701814213D118E00A6822F007020243E3
:105450000A60FFF7F5FE0A4D4FF47A760446083DE0
:1054600007E000BFFFF7ECFE001BB04201D90120AE
:1054700070BD2868C0438004F4D4002070BD0000D3
:105480000C48025810B501F05FF905490968054A52
:10549000C1F30211515C01F01F01C84010BD0000B2
:1054A000204402584EFD00084A4930B5494C0B1DB6
:1054B0000A680C3409681D68246802F0030305F0CB
:1054C0000102C1F30511C4F3CC04002914FB02F25C
:1054D00000EE102AF8EE400A76D0414A9FED3E1ABF
:1054E000DFED3E1AB7EE000A23B1012B5AD0022B92
:1054F00018D15CE0374C283C23689B0612D5394B09
:10550000246801EE901A1168C4F3C104F8EE612A10
:10551000E34001EE903AC1F30801F8EE611A81EE22
:10552000A22A07E002EE101A1168F8EE422A81EE74
:10553000A22A45E001EE901A1168F8EE611A40EED9
:10554000811A71EE800A62EE200AC1F3462101EE53
:10555000101AB8EE411A31EE001AC0EE811ABCEEF4
:10556000E11A80ED001A1168C1F3064101EE101A2C
:10557000B8EE411A31EE001AC0EE811ABCEEE11A03
:1055800080ED011A1168C1F3066101EE101AB8EE40
:10559000411A31EE000A80EE801ABCEEC10A80ED9D
:1055A000020A30BD01EE901ADFED0F2A03E001EE92
:1055B000901ADFED0E2A1168F8EE611A82EEA12A28
:1055C000C1F30801B6E7FFE7002101604160816097
:1055D00030BD000028440258000000390024744CFB
:1055E000304402580090D0030024744A20BCBE4BC3
:1055F000494930B5484C0B1D0A68143409681D68C8
:10560000246802F00303C5F30012C1F30531C4F3AB
:10561000CC04002914FB02F200EE102AF8EE400A36
:1056200075D03F4A9FED3D1AB7EE000A6BB1DFED32
:105630003D1A012B01D0022B64D002EE101A116822
:10564000F8EE422A81EEA22A21E0334C283C23685E
:105650009B0612D5344B246801EE901A1168C4F3EE
:10566000C104F8EE612AE34001EE903AC1F308016B
:10567000F8EE611A81EEA22A0BE001EE901ADFED3E
:105680002B2A00BFF8EE611A116882EEA12AC1F33D
:10569000080101EE901A1168F8EE611A40EE811AC5
:1056A00071EE800A62EE200AC1F3462101EE101A63
:1056B000B8EE411A31EE001AC0EE811ABCEEE11AC2
:1056C00080ED001A1168C1F3064101EE101AB8EE20
:1056D000411A31EE001AC0EE811ABCEEE11A80EDDB
:1056E000011A1168C1F3066101EE101AB8EE411AF1
:1056F00031EE000A80EE801ABCEEC10A80ED020A8B
:1057000030BD04E001EE901ADFED092ABAE700216E
:10571000016041608160F3E72844025800000039CD
:10572000384402580024744A0090D0030024744C7A
:1057300020BCBE4B494930B5484C0B1D0A681C348F
:1057400009681D68246802F00303C5F30022C1F351
:105750000551C4F3CC04002914FB02F200EE102A18
:10576000F8EE400A75D03F4A9FED3D1AB7EE000AA9
:105770006BB1DFED3D1A012B01D0022B64D002EE9C
:10578000101A1168F8EE422A81EEA22A21E0334C69
:10579000283C23689B0612D5344B246801EE901AEE
:1057A0001168C4F3C104F8EE612AE34001EE903AB7
:1057B000C1F30801F8EE611A81EEA22A0BE001EEB6
:1057C000901ADFED2B2A00BFF8EE611A116882EE05
:1057D000A12AC1F3080101EE901A1168F8EE611ACE
:1057E00040EE811A71EE800A62EE200AC1F3462172
:1057F00001EE101AB8EE411A31EE001AC0EE811A0D
:10580000BCEEE11A80ED001A1168C1F3064101EE09
:10581000101AB8EE411A31EE001AC0EE811ABCEE31
:10582000E11A80ED011A1168C1F3066101EE101A48
:10583000B8EE411A31EE000A80EE801ABCEEC10AC1
:1058400080ED020A30BD04E001EE901ADFED092A76
:10585000BAE70021016041608160F3E72844025803
:1058600000000039404402580024744A0090D003DC
:105870000024744C20BCBE4B2DE9F04FAC4A0546C9
:10588000DFF8A8A280F48070DFF8AC9289B0131121
:10589000AA4C0843A748AAF104064FF0805C4FF0D9
:1058A00000582CD085F400770F4357D0DFF87CB236
:1058B00085F480670F430BF1080B61D085F4006716
:1058C0000F4374D085F480570F436ED085F4005792
:1058D0000F434FF480394FF4003E67D085F4002722
:1058E0000F4371D085F480370F436ED085F4804626
:1058F0000E436BD085F400420A4368D02AE0DAF800
:10590000001001F00701052924D2DFE801F075BC81
:105910007D25B10006A8FFF7C7FD079809B0BDE8CF
:10592000F08F6846FFF764FE0098F7E703A8FFF7DB
:1059300001FF0398F2E72068C0F3C10022FA00F0EB
:10594000ECE72268D20571D561456FD11846E5E7CD
:105950004145E3D00020E1E74846DFE7DAF80010F0
:1059600001F4E07180294FD004DC002944D04029A3
:10597000F0D188E0C029EFD0B1F5807FEAD177E09F
:10598000DBF8001001F46001B1F5800F3CD004DCBD
:1059900091B3B1F5001FDDD175E0B1F5C00FDBD0DB
:1059A000B1F5000FD6D163E001E018E030E0DBF89C
:1059B000001001F0E061B1F1007F25D008DCD9B121
:1059C000B1F1807FC6D15EE049E06CE079E09CE017
:1059D000B1F1407FC0D0B1F1806FBBD148E0DAF8BF
:1059E000001001F4E041B1F5005F0DD005DC19B104
:1059F000B1F5805FAED146E094E0B1F5405FABD049
:105A0000B1F5804FA6D133E020688000A2D58DE7A4
:105A1000DAF8001001F4E021B1F5403F6CD006DC6B
:105A200061B149457AD0714594D157E037E0B1F57D
:105A3000802F65D0B1F5A02F8CD10CE000F0A6FE30
:105A40006CE76846FFF7D4FD019867E703A8FFF706
:105A500071FE049862E721688903F1D47AE7DBF8E4
:105A6000001011F440310ED0494510D07145F5D1E8
:105A70003168256801F040516D077FF562AF00295C
:105A80007FF45FAF57E720680001E7D549E720685A
:105A90008000E3D503A8FFF74DFE05983EE7226896
:105AA0009203DBD554E7306810F480303AD0484593
:105AB000D4D120680001D1D56846FFF799FD02983E
:105AC0002CE7DBF8001001F0E041B1F1405F13D0AA
:105AD00008DC71B1614521D04145BFD1206880000B
